{
  "_format": "hh-sol-artifact-1",
  "contractName": "Insurance",
  "sourceName": "contracts/Insurance.sol",
  "abi": [
    {
      "inputs": [
        {
          "internalType": "address",
          "name": "_medicalTokenAddress",
          "type": "address"
        },
        {
          "internalType": "address",
          "name": "_oracleAddress",
          "type": "address"
        },
        {
          "internalType": "address",
          "name": "_medicalRecordContractAddress",
          "type": "address"
        }
      ],
      "stateMutability": "nonpayable",
      "type": "constructor"
    },
    {
      "anonymous": false,
      "inputs": [
        {
          "indexed": true,
          "internalType": "address",
          "name": "user",
          "type": "address"
        },
        {
          "indexed": false,
          "internalType": "uint256",
          "name": "year",
          "type": "uint256"
        },
        {
          "indexed": false,
          "internalType": "uint256",
          "name": "month",
          "type": "uint256"
        },
        {
          "indexed": false,
          "internalType": "uint256",
          "name": "claimAmount",
          "type": "uint256"
        },
        {
          "indexed": true,
          "internalType": "address",
          "name": "provider",
          "type": "address"
        },
        {
          "indexed": false,
          "internalType": "string",
          "name": "nik",
          "type": "string"
        },
        {
          "indexed": false,
          "internalType": "uint256",
          "name": "recordIndex",
          "type": "uint256"
        }
      ],
      "name": "Claimed",
      "type": "event"
    },
    {
      "anonymous": false,
      "inputs": [
        {
          "indexed": true,
          "internalType": "address",
          "name": "user",
          "type": "address"
        },
        {
          "indexed": false,
          "internalType": "uint256",
          "name": "year",
          "type": "uint256"
        },
        {
          "indexed": false,
          "internalType": "uint256",
          "name": "month",
          "type": "uint256"
        },
        {
          "indexed": false,
          "internalType": "uint256",
          "name": "amount",
          "type": "uint256"
        }
      ],
      "name": "PremiumPaid",
      "type": "event"
    },
    {
      "anonymous": false,
      "inputs": [
        {
          "indexed": false,
          "internalType": "uint256",
          "name": "oldAmount",
          "type": "uint256"
        },
        {
          "indexed": false,
          "internalType": "uint256",
          "name": "newAmount",
          "type": "uint256"
        }
      ],
      "name": "SetPremium",
      "type": "event"
    },
    {
      "inputs": [
        {
          "internalType": "uint256",
          "name": "year",
          "type": "uint256"
        },
        {
          "internalType": "uint256",
          "name": "month",
          "type": "uint256"
        },
        {
          "internalType": "address",
          "name": "provider",
          "type": "address"
        },
        {
          "internalType": "string",
          "name": "nik",
          "type": "string"
        },
        {
          "internalType": "uint256",
          "name": "recordIndex",
          "type": "uint256"
        }
      ],
      "name": "claim",
      "outputs": [],
      "stateMutability": "nonpayable",
      "type": "function"
    },
    {
      "inputs": [],
      "name": "claimAmount",
      "outputs": [
        {
          "internalType": "uint256",
          "name": "",
          "type": "uint256"
        }
      ],
      "stateMutability": "view",
      "type": "function"
    },
    {
      "inputs": [
        {
          "internalType": "address",
          "name": "user",
          "type": "address"
        },
        {
          "internalType": "uint256",
          "name": "year",
          "type": "uint256"
        },
        {
          "internalType": "uint256",
          "name": "month",
          "type": "uint256"
        }
      ],
      "name": "isActive",
      "outputs": [
        {
          "internalType": "bool",
          "name": "",
          "type": "bool"
        }
      ],
      "stateMutability": "view",
      "type": "function"
    },
    {
      "inputs": [],
      "name": "medicalToken",
      "outputs": [
        {
          "internalType": "contract IERC20",
          "name": "",
          "type": "address"
        }
      ],
      "stateMutability": "view",
      "type": "function"
    },
    {
      "inputs": [],
      "name": "owner",
      "outputs": [
        {
          "internalType": "address",
          "name": "",
          "type": "address"
        }
      ],
      "stateMutability": "view",
      "type": "function"
    },
    {
      "inputs": [
        {
          "internalType": "uint256",
          "name": "month",
          "type": "uint256"
        },
        {
          "internalType": "uint256",
          "name": "year",
          "type": "uint256"
        }
      ],
      "name": "payPremium",
      "outputs": [],
      "stateMutability": "nonpayable",
      "type": "function"
    },
    {
      "inputs": [],
      "name": "premiumAmount",
      "outputs": [
        {
          "internalType": "uint256",
          "name": "",
          "type": "uint256"
        }
      ],
      "stateMutability": "view",
      "type": "function"
    },
    {
      "inputs": [],
      "name": "priceOracle",
      "outputs": [
        {
          "internalType": "contract IOracle",
          "name": "",
          "type": "address"
        }
      ],
      "stateMutability": "view",
      "type": "function"
    },
    {
      "inputs": [
        {
          "internalType": "uint256",
          "name": "newClaimAmount",
          "type": "uint256"
        }
      ],
      "name": "setClaimAmount",
      "outputs": [],
      "stateMutability": "nonpayable",
      "type": "function"
    },
    {
      "inputs": [
        {
          "internalType": "uint256",
          "name": "newAmount",
          "type": "uint256"
        }
      ],
      "name": "setPremiumAmount",
      "outputs": [],
      "stateMutability": "nonpayable",
      "type": "function"
    },
    {
      "inputs": [
        {
          "internalType": "uint256",
          "name": "amount",
          "type": "uint256"
        }
      ],
      "name": "withdrawTokens",
      "outputs": [],
      "stateMutability": "nonpayable",
      "type": "function"
    }
  ],
  "bytecode": "0x608060405234801561001057600080fd5b50604051611e49380380611e49833981810160405281019061003291906101a0565b33600660006101000a81548173ffffffffffffffffffffffffffffffffffffffff021916908373ffffffffffffffffffffffffffffffffffffffff16021790555082600160006101000a81548173ffffffffffffffffffffffffffffffffffffffff021916908373ffffffffffffffffffffffffffffffffffffffff16021790555081600260006101000a81548173ffffffffffffffffffffffffffffffffffffffff021916908373ffffffffffffffffffffffffffffffffffffffff160217905550806000806101000a81548173ffffffffffffffffffffffffffffffffffffffff021916908373ffffffffffffffffffffffffffffffffffffffff1602179055505050506101f3565b600080fd5b600073ffffffffffffffffffffffffffffffffffffffff82169050919050565b600061016d82610142565b9050919050565b61017d81610162565b811461018857600080fd5b50565b60008151905061019a81610174565b92915050565b6000806000606084860312156101b9576101b861013d565b5b60006101c78682870161018b565b93505060206101d88682870161018b565b92505060406101e98682870161018b565b9150509250925092565b611c47806102026000396000f3fe608060405234801561001057600080fd5b50600436106100a95760003560e01c80637d2ae6a0116100715780637d2ae6a01461013e578063830953ab1461015c5780638da5cb5b1461017a578063b1c7ef0c14610198578063c355bfbb146101b4578063f076b4f0146101e4576100a9565b806313df1111146100ae5780632630c12f146100ca578063315a095d146100e857806344530f3a146101045780635233ccc714610122575b600080fd5b6100c860048036038101906100c3919061104b565b610200565b005b6100d26102db565b6040516100df91906110f7565b60405180910390f35b61010260048036038101906100fd919061104b565b610301565b005b61010c610557565b6040516101199190611121565b60405180910390f35b61013c600480360381019061013791906112c0565b61055d565b005b6101466109fc565b6040516101539190611378565b60405180910390f35b610164610a22565b6040516101719190611121565b60405180910390f35b610182610a28565b60405161018f91906113a2565b60405180910390f35b6101b260048036038101906101ad919061104b565b610a4e565b005b6101ce60048036038101906101c991906113bd565b610ae8565b6040516101db919061142b565b60405180910390f35b6101fe60048036038101906101f99190611446565b610b62565b005b600660009054906101000a900473ffffffffffffffffffffffffffffffffffffffff1673ffffffffffffffffffffffffffffffffffffffff163373ffffffffffffffffffffffffffffffffffffffff1614610290576040517f08c379a000000000000000000000000000000000000000000000000000000000815260040161028790611509565b60405180910390fd5b60006003549050816003819055507f998ef4a59a00fe914278865e378fb19758bcbf3926e3b63b704c3e0f2cfdb13381836040516102cf929190611529565b60405180910390a15050565b600260009054906101000a900473ffffffffffffffffffffffffffffffffffffffff1681565b600660009054906101000a900473ffffffffffffffffffffffffffffffffffffffff1673ffffffffffffffffffffffffffffffffffffffff163373ffffffffffffffffffffffffffffffffffffffff1614610391576040517f08c379a000000000000000000000000000000000000000000000000000000000815260040161038890611509565b60405180910390fd5b80600160009054906101000a900473ffffffffffffffffffffffffffffffffffffffff1673ffffffffffffffffffffffffffffffffffffffff166370a08231306040518263ffffffff1660e01b81526004016103ed91906113a2565b602060405180830381865afa15801561040a573d6000803e3d6000fd5b505050506040513d601f19601f8201168201806040525081019061042e9190611567565b101561046f576040517f08c379a0000000000000000000000000000000000000000000000000000000008152600401610466906115e0565b60405180910390fd5b6000600160009054906101000a900473ffffffffffffffffffffffffffffffffffffffff1673ffffffffffffffffffffffffffffffffffffffff1663a9059cbb33846040518363ffffffff1660e01b81526004016104ce929190611600565b6020604051808303816000875af11580156104ed573d6000803e3d6000fd5b505050506040513d601f19601f820116820180604052508101906105119190611655565b905080610553576040517f08c379a000000000000000000000000000000000000000000000000000000000815260040161054a906116ce565b60405180910390fd5b5050565b60035481565b6000600260009054906101000a900473ffffffffffffffffffffffffffffffffffffffff1673ffffffffffffffffffffffffffffffffffffffff166321f6d5876040518163ffffffff1660e01b8152600401602060405180830381865afa1580156105cc573d6000803e3d6000fd5b505050506040513d601f19601f820116820180604052508101906105f09190611567565b905060008611610635576040517f08c379a000000000000000000000000000000000000000000000000000000000815260040161062c9061173a565b60405180910390fd5b600185101580156106475750600c8511155b610686576040517f08c379a000000000000000000000000000000000000000000000000000000000815260040161067d906117a6565b60405180910390fd5b600560003373ffffffffffffffffffffffffffffffffffffffff1673ffffffffffffffffffffffffffffffffffffffff1681526020019081526020016000206000878152602001908152602001600020600086815260200190815260200160002060009054906101000a900460ff16610734576040517f08c379a000000000000000000000000000000000000000000000000000000000815260040161072b90611812565b60405180910390fd5b80600160009054906101000a900473ffffffffffffffffffffffffffffffffffffffff1673ffffffffffffffffffffffffffffffffffffffff166370a08231306040518263ffffffff1660e01b815260040161079091906113a2565b602060405180830381865afa1580156107ad573d6000803e3d6000fd5b505050506040513d601f19601f820116820180604052508101906107d19190611567565b1015610812576040517f08c379a0000000000000000000000000000000000000000000000000000000008152600401610809906118a4565b60405180910390fd5b6000600160009054906101000a900473ffffffffffffffffffffffffffffffffffffffff1673ffffffffffffffffffffffffffffffffffffffff1663a9059cbb86846040518363ffffffff1660e01b8152600401610871929190611600565b6020604051808303816000875af1158015610890573d6000803e3d6000fd5b505050506040513d601f19601f820116820180604052508101906108b49190611655565b9050806108f6576040517f08c379a00000000000000000000000000000000000000000000000000000000081526004016108ed90611910565b60405180910390fd5b60008054906101000a900473ffffffffffffffffffffffffffffffffffffffff1673ffffffffffffffffffffffffffffffffffffffff1663d1b8669b858560016040518463ffffffff1660e01b81526004016109549392919061199e565b600060405180830381600087803b15801561096e57600080fd5b505af1158015610982573d6000803e3d6000fd5b505050508473ffffffffffffffffffffffffffffffffffffffff163373ffffffffffffffffffffffffffffffffffffffff167fc25736c7e0968cf39edad51de5da1bda705e7fa1d58ce3b447a02f4afb21fa7489898689896040516109eb9594939291906119dc565b60405180910390a350505050505050565b600160009054906101000a900473ffffffffffffffffffffffffffffffffffffffff1681565b60045481565b600660009054906101000a900473ffffffffffffffffffffffffffffffffffffffff1681565b600660009054906101000a900473ffffffffffffffffffffffffffffffffffffffff1673ffffffffffffffffffffffffffffffffffffffff163373ffffffffffffffffffffffffffffffffffffffff1614610ade576040517f08c379a0000000000000000000000000000000000000000000000000000000008152600401610ad590611509565b60405180910390fd5b8060048190555050565b6000600560008573ffffffffffffffffffffffffffffffffffffffff1673ffffffffffffffffffffffffffffffffffffffff1681526020019081526020016000206000848152602001908152602001600020600083815260200190815260200160002060009054906101000a900460ff1690509392505050565b6000600260009054906101000a900473ffffffffffffffffffffffffffffffffffffffff1673ffffffffffffffffffffffffffffffffffffffff166349394b0d6040518163ffffffff1660e01b8152600401602060405180830381865afa158015610bd1573d6000803e3d6000fd5b505050506040513d601f19601f82011682018060405250810190610bf59190611567565b905060018310158015610c095750600c8311155b610c48576040517f08c379a0000000000000000000000000000000000000000000000000000000008152600401610c3f906117a6565b60405180910390fd5b60008211610c8b576040517f08c379a0000000000000000000000000000000000000000000000000000000008152600401610c829061173a565b60405180910390fd5b80600160009054906101000a900473ffffffffffffffffffffffffffffffffffffffff1673ffffffffffffffffffffffffffffffffffffffff166370a08231336040518263ffffffff1660e01b8152600401610ce791906113a2565b602060405180830381865afa158015610d04573d6000803e3d6000fd5b505050506040513d601f19601f82011682018060405250810190610d289190611567565b1015610d69576040517f08c379a0000000000000000000000000000000000000000000000000000000008152600401610d6090611a82565b60405180910390fd5b80600160009054906101000a900473ffffffffffffffffffffffffffffffffffffffff1673ffffffffffffffffffffffffffffffffffffffff1663dd62ed3e33306040518363ffffffff1660e01b8152600401610dc7929190611aa2565b602060405180830381865afa158015610de4573d6000803e3d6000fd5b505050506040513d601f19601f82011682018060405250810190610e089190611567565b1015610e49576040517f08c379a0000000000000000000000000000000000000000000000000000000008152600401610e4090611b17565b60405180910390fd5b6000600160009054906101000a900473ffffffffffffffffffffffffffffffffffffffff1673ffffffffffffffffffffffffffffffffffffffff166323b872dd3330856040518463ffffffff1660e01b8152600401610eaa93929190611b37565b6020604051808303816000875af1158015610ec9573d6000803e3d6000fd5b505050506040513d601f19601f82011682018060405250810190610eed9190611655565b905080610f2f576040517f08c379a0000000000000000000000000000000000000000000000000000000008152600401610f2690611bba565b60405180910390fd5b6001600560003373ffffffffffffffffffffffffffffffffffffffff1673ffffffffffffffffffffffffffffffffffffffff1681526020019081526020016000206000858152602001908152602001600020600086815260200190815260200160002060006101000a81548160ff0219169083151502179055503373ffffffffffffffffffffffffffffffffffffffff167ffe1888860e237e44639c683e17afbc47be976fdc2b0eded4c2eea13ed37d3454848685604051610ff393929190611bda565b60405180910390a250505050565b6000604051905090565b600080fd5b600080fd5b6000819050919050565b61102881611015565b811461103357600080fd5b50565b6000813590506110458161101f565b92915050565b6000602082840312156110615761106061100b565b5b600061106f84828501611036565b91505092915050565b600073ffffffffffffffffffffffffffffffffffffffff82169050919050565b6000819050919050565b60006110bd6110b86110b384611078565b611098565b611078565b9050919050565b60006110cf826110a2565b9050919050565b60006110e1826110c4565b9050919050565b6110f1816110d6565b82525050565b600060208201905061110c60008301846110e8565b92915050565b61111b81611015565b82525050565b60006020820190506111366000830184611112565b92915050565b600061114782611078565b9050919050565b6111578161113c565b811461116257600080fd5b50565b6000813590506111748161114e565b92915050565b600080fd5b600080fd5b6000601f19601f8301169050919050565b7f4e487b7100000000000000000000000000000000000000000000000000000000600052604160045260246000fd5b6111cd82611184565b810181811067ffffffffffffffff821117156111ec576111eb611195565b5b80604052505050565b60006111ff611001565b905061120b82826111c4565b919050565b600067ffffffffffffffff82111561122b5761122a611195565b5b61123482611184565b9050602081019050919050565b82818337600083830152505050565b600061126361125e84611210565b6111f5565b90508281526020810184848401111561127f5761127e61117f565b5b61128a848285611241565b509392505050565b600082601f8301126112a7576112a661117a565b5b81356112b7848260208601611250565b91505092915050565b600080600080600060a086880312156112dc576112db61100b565b5b60006112ea88828901611036565b95505060206112fb88828901611036565b945050604061130c88828901611165565b935050606086013567ffffffffffffffff81111561132d5761132c611010565b5b61133988828901611292565b925050608061134a88828901611036565b9150509295509295909350565b6000611362826110c4565b9050919050565b61137281611357565b82525050565b600060208201905061138d6000830184611369565b92915050565b61139c8161113c565b82525050565b60006020820190506113b76000830184611393565b92915050565b6000806000606084860312156113d6576113d561100b565b5b60006113e486828701611165565b93505060206113f586828701611036565b925050604061140686828701611036565b9150509250925092565b60008115159050919050565b61142581611410565b82525050565b6000602082019050611440600083018461141c565b92915050565b6000806040838503121561145d5761145c61100b565b5b600061146b85828601611036565b925050602061147c85828601611036565b9150509250929050565b600082825260208201905092915050565b7f4f6e6c79206f776e65722063616e2063616c6c20746869732066756e6374696f60008201527f6e00000000000000000000000000000000000000000000000000000000000000602082015250565b60006114f3602183611486565b91506114fe82611497565b604082019050919050565b60006020820190508181036000830152611522816114e6565b9050919050565b600060408201905061153e6000830185611112565b61154b6020830184611112565b9392505050565b6000815190506115618161101f565b92915050565b60006020828403121561157d5761157c61100b565b5b600061158b84828501611552565b91505092915050565b7f4e6f7420656e6f75676820746f6b656e7320696e20636f6e7472616374000000600082015250565b60006115ca601d83611486565b91506115d582611594565b602082019050919050565b600060208201905081810360008301526115f9816115bd565b9050919050565b60006040820190506116156000830185611393565b6116226020830184611112565b9392505050565b61163281611410565b811461163d57600080fd5b50565b60008151905061164f81611629565b92915050565b60006020828403121561166b5761166a61100b565b5b600061167984828501611640565b91505092915050565b7f5769746864726177616c206661696c6564000000000000000000000000000000600082015250565b60006116b8601183611486565b91506116c382611682565b602082019050919050565b600060208201905081810360008301526116e7816116ab565b9050919050565b7f59656172206d757374206265206e6f6e7a65726f000000000000000000000000600082015250565b6000611724601483611486565b915061172f826116ee565b602082019050919050565b6000602082019050818103600083015261175381611717565b9050919050565b7f4d6f6e7468206d75737420626520312d31320000000000000000000000000000600082015250565b6000611790601283611486565b915061179b8261175a565b602082019050919050565b600060208201905081810360008301526117bf81611783565b9050919050565b7f4e6f742061637469766520666f722074686973206d6f6e74682f796561720000600082015250565b60006117fc601e83611486565b9150611807826117c6565b602082019050919050565b6000602082019050818103600083015261182b816117ef565b9050919050565b7f496e73756666696369656e7420636f6e747261637420746f6b656e2062616c6160008201527f6e63650000000000000000000000000000000000000000000000000000000000602082015250565b600061188e602383611486565b915061189982611832565b604082019050919050565b600060208201905081810360008301526118bd81611881565b9050919050565b7f436c61696d207472616e73666572206661696c65640000000000000000000000600082015250565b60006118fa601583611486565b9150611905826118c4565b602082019050919050565b60006020820190508181036000830152611929816118ed565b9050919050565b600081519050919050565b60005b8381101561195957808201518184015260208101905061193e565b60008484015250505050565b600061197082611930565b61197a8185611486565b935061198a81856020860161193b565b61199381611184565b840191505092915050565b600060608201905081810360008301526119b88186611965565b90506119c76020830185611112565b6119d4604083018461141c565b949350505050565b600060a0820190506119f16000830188611112565b6119fe6020830187611112565b611a0b6040830186611112565b8181036060830152611a1d8185611965565b9050611a2c6080830184611112565b9695505050505050565b7f496e73756666696369656e7420746f6b656e2062616c616e6365000000000000600082015250565b6000611a6c601a83611486565b9150611a7782611a36565b602082019050919050565b60006020820190508181036000830152611a9b81611a5f565b9050919050565b6000604082019050611ab76000830185611393565b611ac46020830184611393565b9392505050565b7f496e73756666696369656e7420746f6b656e20616c6c6f77616e636500000000600082015250565b6000611b01601c83611486565b9150611b0c82611acb565b602082019050919050565b60006020820190508181036000830152611b3081611af4565b9050919050565b6000606082019050611b4c6000830186611393565b611b596020830185611393565b611b666040830184611112565b949350505050565b7f546f6b656e207472616e73666572206661696c65640000000000000000000000600082015250565b6000611ba4601583611486565b9150611baf82611b6e565b602082019050919050565b60006020820190508181036000830152611bd381611b97565b9050919050565b6000606082019050611bef6000830186611112565b611bfc6020830185611112565b611c096040830184611112565b94935050505056fea264697066735822122086fdafb0d52b940c1fb3dd83f859a720b6a82b80058c2e01f6c663f28140be6264736f6c634300081b0033",
  "linkReferences": {},
  "deployedLinkReferences": {}
}