{
  "_format": "hh-sol-artifact-1",
  "contractName": "Insurance",
  "sourceName": "contracts/Insurance.sol",
  "abi": [
    {
      "inputs": [
        {
          "internalType": "address",
          "name": "_medicalTokenAddress",
          "type": "address"
        },
        {
          "internalType": "address",
          "name": "_oracleAddress",
          "type": "address"
        },
        {
          "internalType": "address",
          "name": "_medicalRecordContractAddress",
          "type": "address"
        }
      ],
      "stateMutability": "nonpayable",
      "type": "constructor"
    },
    {
      "anonymous": false,
      "inputs": [
        {
          "indexed": true,
          "internalType": "address",
          "name": "user",
          "type": "address"
        },
        {
          "indexed": false,
          "internalType": "uint256",
          "name": "year",
          "type": "uint256"
        },
        {
          "indexed": false,
          "internalType": "uint256",
          "name": "month",
          "type": "uint256"
        },
        {
          "indexed": false,
          "internalType": "uint256",
          "name": "claimAmount",
          "type": "uint256"
        },
        {
          "indexed": true,
          "internalType": "address",
          "name": "provider",
          "type": "address"
        },
        {
          "indexed": false,
          "internalType": "uint256",
          "name": "medrecIdentifier",
          "type": "uint256"
        }
      ],
      "name": "Claimed",
      "type": "event"
    },
    {
      "anonymous": false,
      "inputs": [
        {
          "indexed": true,
          "internalType": "address",
          "name": "user",
          "type": "address"
        },
        {
          "indexed": false,
          "internalType": "uint256",
          "name": "year",
          "type": "uint256"
        },
        {
          "indexed": false,
          "internalType": "uint256",
          "name": "month",
          "type": "uint256"
        },
        {
          "indexed": false,
          "internalType": "uint256",
          "name": "amount",
          "type": "uint256"
        }
      ],
      "name": "PremiumPaid",
      "type": "event"
    },
    {
      "anonymous": false,
      "inputs": [
        {
          "indexed": false,
          "internalType": "uint256",
          "name": "oldAmount",
          "type": "uint256"
        },
        {
          "indexed": false,
          "internalType": "uint256",
          "name": "newAmount",
          "type": "uint256"
        }
      ],
      "name": "SetPremium",
      "type": "event"
    },
    {
      "inputs": [
        {
          "internalType": "string",
          "name": "nik",
          "type": "string"
        },
        {
          "internalType": "uint256",
          "name": "recordIndex",
          "type": "uint256"
        },
        {
          "internalType": "bool",
          "name": "isPaid",
          "type": "bool"
        }
      ],
      "name": "changePaymentStatus",
      "outputs": [],
      "stateMutability": "nonpayable",
      "type": "function"
    },
    {
      "inputs": [
        {
          "internalType": "uint256",
          "name": "year",
          "type": "uint256"
        },
        {
          "internalType": "uint256",
          "name": "month",
          "type": "uint256"
        },
        {
          "internalType": "address",
          "name": "provider",
          "type": "address"
        },
        {
          "internalType": "uint256",
          "name": "medrecIdentifier",
          "type": "uint256"
        }
      ],
      "name": "claim",
      "outputs": [],
      "stateMutability": "nonpayable",
      "type": "function"
    },
    {
      "inputs": [],
      "name": "claimAmount",
      "outputs": [
        {
          "internalType": "uint256",
          "name": "",
          "type": "uint256"
        }
      ],
      "stateMutability": "view",
      "type": "function"
    },
    {
      "inputs": [
        {
          "internalType": "address",
          "name": "user",
          "type": "address"
        },
        {
          "internalType": "uint256",
          "name": "year",
          "type": "uint256"
        },
        {
          "internalType": "uint256",
          "name": "month",
          "type": "uint256"
        }
      ],
      "name": "isActive",
      "outputs": [
        {
          "internalType": "bool",
          "name": "",
          "type": "bool"
        }
      ],
      "stateMutability": "view",
      "type": "function"
    },
    {
      "inputs": [],
      "name": "medicalToken",
      "outputs": [
        {
          "internalType": "contract IERC20",
          "name": "",
          "type": "address"
        }
      ],
      "stateMutability": "view",
      "type": "function"
    },
    {
      "inputs": [],
      "name": "owner",
      "outputs": [
        {
          "internalType": "address",
          "name": "",
          "type": "address"
        }
      ],
      "stateMutability": "view",
      "type": "function"
    },
    {
      "inputs": [
        {
          "internalType": "uint256",
          "name": "month",
          "type": "uint256"
        },
        {
          "internalType": "uint256",
          "name": "year",
          "type": "uint256"
        }
      ],
      "name": "payPremium",
      "outputs": [],
      "stateMutability": "nonpayable",
      "type": "function"
    },
    {
      "inputs": [],
      "name": "premiumAmount",
      "outputs": [
        {
          "internalType": "uint256",
          "name": "",
          "type": "uint256"
        }
      ],
      "stateMutability": "view",
      "type": "function"
    },
    {
      "inputs": [],
      "name": "priceOracle",
      "outputs": [
        {
          "internalType": "contract IOracle",
          "name": "",
          "type": "address"
        }
      ],
      "stateMutability": "view",
      "type": "function"
    },
    {
      "inputs": [
        {
          "internalType": "uint256",
          "name": "newClaimAmount",
          "type": "uint256"
        }
      ],
      "name": "setClaimAmount",
      "outputs": [],
      "stateMutability": "nonpayable",
      "type": "function"
    },
    {
      "inputs": [
        {
          "internalType": "uint256",
          "name": "newAmount",
          "type": "uint256"
        }
      ],
      "name": "setPremiumAmount",
      "outputs": [],
      "stateMutability": "nonpayable",
      "type": "function"
    },
    {
      "inputs": [
        {
          "internalType": "uint256",
          "name": "amount",
          "type": "uint256"
        }
      ],
      "name": "withdrawTokens",
      "outputs": [],
      "stateMutability": "nonpayable",
      "type": "function"
    }
  ],
  "bytecode": "0x608060405234801561001057600080fd5b50604051611eb0380380611eb0833981810160405281019061003291906101a0565b33600660006101000a81548173ffffffffffffffffffffffffffffffffffffffff021916908373ffffffffffffffffffffffffffffffffffffffff16021790555082600160006101000a81548173ffffffffffffffffffffffffffffffffffffffff021916908373ffffffffffffffffffffffffffffffffffffffff16021790555081600260006101000a81548173ffffffffffffffffffffffffffffffffffffffff021916908373ffffffffffffffffffffffffffffffffffffffff160217905550806000806101000a81548173ffffffffffffffffffffffffffffffffffffffff021916908373ffffffffffffffffffffffffffffffffffffffff1602179055505050506101f3565b600080fd5b600073ffffffffffffffffffffffffffffffffffffffff82169050919050565b600061016d82610142565b9050919050565b61017d81610162565b811461018857600080fd5b50565b60008151905061019a81610174565b92915050565b6000806000606084860312156101b9576101b861013d565b5b60006101c78682870161018b565b93505060206101d88682870161018b565b92505060406101e98682870161018b565b9150509250925092565b611cae806102026000396000f3fe608060405234801561001057600080fd5b50600436106100b45760003560e01c8063830953ab11610071578063830953ab146101675780638da5cb5b14610185578063b1c7ef0c146101a3578063c355bfbb146101bf578063f076b4f0146101ef578063f959c5151461020b576100b4565b806313df1111146100b95780632630c12f146100d5578063315a095d146100f357806344530f3a1461010f57806374dd22151461012d5780637d2ae6a014610149575b600080fd5b6100d360048036038101906100ce9190611073565b610227565b005b6100dd610302565b6040516100ea919061111f565b60405180910390f35b61010d60048036038101906101089190611073565b610328565b005b61011761057e565b6040516101249190611149565b60405180910390f35b610147600480360381019061014291906111a2565b610584565b005b610151610990565b60405161015e919061122a565b60405180910390f35b61016f6109b6565b60405161017c9190611149565b60405180910390f35b61018d6109bc565b60405161019a9190611254565b60405180910390f35b6101bd60048036038101906101b89190611073565b6109e2565b005b6101d960048036038101906101d4919061126f565b610a7c565b6040516101e691906112dd565b60405180910390f35b610209600480360381019061020491906112f8565b610af6565b005b610225600480360381019061022091906114aa565b610f95565b005b600660009054906101000a900473ffffffffffffffffffffffffffffffffffffffff1673ffffffffffffffffffffffffffffffffffffffff163373ffffffffffffffffffffffffffffffffffffffff16146102b7576040517f08c379a00000000000000000000000000000000000000000000000000000000081526004016102ae9061159c565b60405180910390fd5b60006003549050816003819055507f998ef4a59a00fe914278865e378fb19758bcbf3926e3b63b704c3e0f2cfdb13381836040516102f69291906115bc565b60405180910390a15050565b600260009054906101000a900473ffffffffffffffffffffffffffffffffffffffff1681565b600660009054906101000a900473ffffffffffffffffffffffffffffffffffffffff1673ffffffffffffffffffffffffffffffffffffffff163373ffffffffffffffffffffffffffffffffffffffff16146103b8576040517f08c379a00000000000000000000000000000000000000000000000000000000081526004016103af9061159c565b60405180910390fd5b80600160009054906101000a900473ffffffffffffffffffffffffffffffffffffffff1673ffffffffffffffffffffffffffffffffffffffff166370a08231306040518263ffffffff1660e01b81526004016104149190611254565b602060405180830381865afa158015610431573d6000803e3d6000fd5b505050506040513d601f19601f8201168201806040525081019061045591906115fa565b1015610496576040517f08c379a000000000000000000000000000000000000000000000000000000000815260040161048d90611673565b60405180910390fd5b6000600160009054906101000a900473ffffffffffffffffffffffffffffffffffffffff1673ffffffffffffffffffffffffffffffffffffffff1663a9059cbb33846040518363ffffffff1660e01b81526004016104f5929190611693565b6020604051808303816000875af1158015610514573d6000803e3d6000fd5b505050506040513d601f19601f8201168201806040525081019061053891906116d1565b90508061057a576040517f08c379a00000000000000000000000000000000000000000000000000000000081526004016105719061174a565b60405180910390fd5b5050565b60035481565b6000600260009054906101000a900473ffffffffffffffffffffffffffffffffffffffff1673ffffffffffffffffffffffffffffffffffffffff166321f6d5876040518163ffffffff1660e01b8152600401602060405180830381865afa1580156105f3573d6000803e3d6000fd5b505050506040513d601f19601f8201168201806040525081019061061791906115fa565b90506000851161065c576040517f08c379a0000000000000000000000000000000000000000000000000000000008152600401610653906117b6565b60405180910390fd5b6001841015801561066e5750600c8411155b6106ad576040517f08c379a00000000000000000000000000000000000000000000000000000000081526004016106a490611822565b60405180910390fd5b600560003373ffffffffffffffffffffffffffffffffffffffff1673ffffffffffffffffffffffffffffffffffffffff1681526020019081526020016000206000868152602001908152602001600020600085815260200190815260200160002060009054906101000a900460ff1661075b576040517f08c379a00000000000000000000000000000000000000000000000000000000081526004016107529061188e565b60405180910390fd5b80600160009054906101000a900473ffffffffffffffffffffffffffffffffffffffff1673ffffffffffffffffffffffffffffffffffffffff166370a08231306040518263ffffffff1660e01b81526004016107b79190611254565b602060405180830381865afa1580156107d4573d6000803e3d6000fd5b505050506040513d601f19601f820116820180604052508101906107f891906115fa565b1015610839576040517f08c379a000000000000000000000000000000000000000000000000000000000815260040161083090611920565b60405180910390fd5b6000600160009054906101000a900473ffffffffffffffffffffffffffffffffffffffff1673ffffffffffffffffffffffffffffffffffffffff1663a9059cbb85846040518363ffffffff1660e01b8152600401610898929190611693565b6020604051808303816000875af11580156108b7573d6000803e3d6000fd5b505050506040513d601f19601f820116820180604052508101906108db91906116d1565b90508061091d576040517f08c379a00000000000000000000000000000000000000000000000000000000081526004016109149061198c565b60405180910390fd5b8373ffffffffffffffffffffffffffffffffffffffff163373ffffffffffffffffffffffffffffffffffffffff167fcfa1614eb03b3cea5b3320973dec53e65166c2845ff0220fa3902dd7b045df5f8888868860405161098094939291906119ac565b60405180910390a3505050505050565b600160009054906101000a900473ffffffffffffffffffffffffffffffffffffffff1681565b60045481565b600660009054906101000a900473ffffffffffffffffffffffffffffffffffffffff1681565b600660009054906101000a900473ffffffffffffffffffffffffffffffffffffffff1673ffffffffffffffffffffffffffffffffffffffff163373ffffffffffffffffffffffffffffffffffffffff1614610a72576040517f08c379a0000000000000000000000000000000000000000000000000000000008152600401610a699061159c565b60405180910390fd5b8060048190555050565b6000600560008573ffffffffffffffffffffffffffffffffffffffff1673ffffffffffffffffffffffffffffffffffffffff1681526020019081526020016000206000848152602001908152602001600020600083815260200190815260200160002060009054906101000a900460ff1690509392505050565b6000600260009054906101000a900473ffffffffffffffffffffffffffffffffffffffff1673ffffffffffffffffffffffffffffffffffffffff166349394b0d6040518163ffffffff1660e01b8152600401602060405180830381865afa158015610b65573d6000803e3d6000fd5b505050506040513d601f19601f82011682018060405250810190610b8991906115fa565b905060018310158015610b9d5750600c8311155b610bdc576040517f08c379a0000000000000000000000000000000000000000000000000000000008152600401610bd390611822565b60405180910390fd5b60008211610c1f576040517f08c379a0000000000000000000000000000000000000000000000000000000008152600401610c16906117b6565b60405180910390fd5b80600160009054906101000a900473ffffffffffffffffffffffffffffffffffffffff1673ffffffffffffffffffffffffffffffffffffffff166370a08231336040518263ffffffff1660e01b8152600401610c7b9190611254565b602060405180830381865afa158015610c98573d6000803e3d6000fd5b505050506040513d601f19601f82011682018060405250810190610cbc91906115fa565b1015610cfd576040517f08c379a0000000000000000000000000000000000000000000000000000000008152600401610cf490611a3d565b60405180910390fd5b80600160009054906101000a900473ffffffffffffffffffffffffffffffffffffffff1673ffffffffffffffffffffffffffffffffffffffff1663dd62ed3e33306040518363ffffffff1660e01b8152600401610d5b929190611a5d565b602060405180830381865afa158015610d78573d6000803e3d6000fd5b505050506040513d601f19601f82011682018060405250810190610d9c91906115fa565b1015610ddd576040517f08c379a0000000000000000000000000000000000000000000000000000000008152600401610dd490611ad2565b60405180910390fd5b6000600160009054906101000a900473ffffffffffffffffffffffffffffffffffffffff1673ffffffffffffffffffffffffffffffffffffffff166323b872dd3330856040518463ffffffff1660e01b8152600401610e3e93929190611af2565b6020604051808303816000875af1158015610e5d573d6000803e3d6000fd5b505050506040513d601f19601f82011682018060405250810190610e8191906116d1565b905080610ec3576040517f08c379a0000000000000000000000000000000000000000000000000000000008152600401610eba90611b75565b60405180910390fd5b6001600560003373ffffffffffffffffffffffffffffffffffffffff1673ffffffffffffffffffffffffffffffffffffffff1681526020019081526020016000206000858152602001908152602001600020600086815260200190815260200160002060006101000a81548160ff0219169083151502179055503373ffffffffffffffffffffffffffffffffffffffff167ffe1888860e237e44639c683e17afbc47be976fdc2b0eded4c2eea13ed37d3454848685604051610f8793929190611b95565b60405180910390a250505050565b60008054906101000a900473ffffffffffffffffffffffffffffffffffffffff1673ffffffffffffffffffffffffffffffffffffffff1663d1b8669b8484846040518463ffffffff1660e01b8152600401610ff293929190611c3a565b600060405180830381600087803b15801561100c57600080fd5b505af1158015611020573d6000803e3d6000fd5b50505050505050565b6000604051905090565b600080fd5b600080fd5b6000819050919050565b6110508161103d565b811461105b57600080fd5b50565b60008135905061106d81611047565b92915050565b60006020828403121561108957611088611033565b5b60006110978482850161105e565b91505092915050565b600073ffffffffffffffffffffffffffffffffffffffff82169050919050565b6000819050919050565b60006110e56110e06110db846110a0565b6110c0565b6110a0565b9050919050565b60006110f7826110ca565b9050919050565b6000611109826110ec565b9050919050565b611119816110fe565b82525050565b60006020820190506111346000830184611110565b92915050565b6111438161103d565b82525050565b600060208201905061115e600083018461113a565b92915050565b600061116f826110a0565b9050919050565b61117f81611164565b811461118a57600080fd5b50565b60008135905061119c81611176565b92915050565b600080600080608085870312156111bc576111bb611033565b5b60006111ca8782880161105e565b94505060206111db8782880161105e565b93505060406111ec8782880161118d565b92505060606111fd8782880161105e565b91505092959194509250565b6000611214826110ec565b9050919050565b61122481611209565b82525050565b600060208201905061123f600083018461121b565b92915050565b61124e81611164565b82525050565b60006020820190506112696000830184611245565b92915050565b60008060006060848603121561128857611287611033565b5b60006112968682870161118d565b93505060206112a78682870161105e565b92505060406112b88682870161105e565b9150509250925092565b60008115159050919050565b6112d7816112c2565b82525050565b60006020820190506112f260008301846112ce565b92915050565b6000806040838503121561130f5761130e611033565b5b600061131d8582860161105e565b925050602061132e8582860161105e565b9150509250929050565b600080fd5b600080fd5b6000601f19601f8301169050919050565b7f4e487b7100000000000000000000000000000000000000000000000000000000600052604160045260246000fd5b61138b82611342565b810181811067ffffffffffffffff821117156113aa576113a9611353565b5b80604052505050565b60006113bd611029565b90506113c98282611382565b919050565b600067ffffffffffffffff8211156113e9576113e8611353565b5b6113f282611342565b9050602081019050919050565b82818337600083830152505050565b600061142161141c846113ce565b6113b3565b90508281526020810184848401111561143d5761143c61133d565b5b6114488482856113ff565b509392505050565b600082601f83011261146557611464611338565b5b813561147584826020860161140e565b91505092915050565b611487816112c2565b811461149257600080fd5b50565b6000813590506114a48161147e565b92915050565b6000806000606084860312156114c3576114c2611033565b5b600084013567ffffffffffffffff8111156114e1576114e0611038565b5b6114ed86828701611450565b93505060206114fe8682870161105e565b925050604061150f86828701611495565b9150509250925092565b600082825260208201905092915050565b7f4f6e6c79206f776e65722063616e2063616c6c20746869732066756e6374696f60008201527f6e00000000000000000000000000000000000000000000000000000000000000602082015250565b6000611586602183611519565b91506115918261152a565b604082019050919050565b600060208201905081810360008301526115b581611579565b9050919050565b60006040820190506115d1600083018561113a565b6115de602083018461113a565b9392505050565b6000815190506115f481611047565b92915050565b6000602082840312156116105761160f611033565b5b600061161e848285016115e5565b91505092915050565b7f4e6f7420656e6f75676820746f6b656e7320696e20636f6e7472616374000000600082015250565b600061165d601d83611519565b915061166882611627565b602082019050919050565b6000602082019050818103600083015261168c81611650565b9050919050565b60006040820190506116a86000830185611245565b6116b5602083018461113a565b9392505050565b6000815190506116cb8161147e565b92915050565b6000602082840312156116e7576116e6611033565b5b60006116f5848285016116bc565b91505092915050565b7f5769746864726177616c206661696c6564000000000000000000000000000000600082015250565b6000611734601183611519565b915061173f826116fe565b602082019050919050565b6000602082019050818103600083015261176381611727565b9050919050565b7f59656172206d757374206265206e6f6e7a65726f000000000000000000000000600082015250565b60006117a0601483611519565b91506117ab8261176a565b602082019050919050565b600060208201905081810360008301526117cf81611793565b9050919050565b7f4d6f6e7468206d75737420626520312d31320000000000000000000000000000600082015250565b600061180c601283611519565b9150611817826117d6565b602082019050919050565b6000602082019050818103600083015261183b816117ff565b9050919050565b7f4e6f742061637469766520666f722074686973206d6f6e74682f796561720000600082015250565b6000611878601e83611519565b915061188382611842565b602082019050919050565b600060208201905081810360008301526118a78161186b565b9050919050565b7f496e73756666696369656e7420636f6e747261637420746f6b656e2062616c6160008201527f6e63650000000000000000000000000000000000000000000000000000000000602082015250565b600061190a602383611519565b9150611915826118ae565b604082019050919050565b60006020820190508181036000830152611939816118fd565b9050919050565b7f436c61696d207472616e73666572206661696c65640000000000000000000000600082015250565b6000611976601583611519565b915061198182611940565b602082019050919050565b600060208201905081810360008301526119a581611969565b9050919050565b60006080820190506119c1600083018761113a565b6119ce602083018661113a565b6119db604083018561113a565b6119e8606083018461113a565b95945050505050565b7f496e73756666696369656e7420746f6b656e2062616c616e6365000000000000600082015250565b6000611a27601a83611519565b9150611a32826119f1565b602082019050919050565b60006020820190508181036000830152611a5681611a1a565b9050919050565b6000604082019050611a726000830185611245565b611a7f6020830184611245565b9392505050565b7f496e73756666696369656e7420746f6b656e20616c6c6f77616e636500000000600082015250565b6000611abc601c83611519565b9150611ac782611a86565b602082019050919050565b60006020820190508181036000830152611aeb81611aaf565b9050919050565b6000606082019050611b076000830186611245565b611b146020830185611245565b611b21604083018461113a565b949350505050565b7f546f6b656e207472616e73666572206661696c65640000000000000000000000600082015250565b6000611b5f601583611519565b9150611b6a82611b29565b602082019050919050565b60006020820190508181036000830152611b8e81611b52565b9050919050565b6000606082019050611baa600083018661113a565b611bb7602083018561113a565b611bc4604083018461113a565b949350505050565b600081519050919050565b60005b83811015611bf5578082015181840152602081019050611bda565b60008484015250505050565b6000611c0c82611bcc565b611c168185611519565b9350611c26818560208601611bd7565b611c2f81611342565b840191505092915050565b60006060820190508181036000830152611c548186611c01565b9050611c63602083018561113a565b611c7060408301846112ce565b94935050505056fea2646970667358221220d633d47dae34044d883aeb2ea8f58c3bb5c7f8e123f344e7f6f1b985fa3773f164736f6c634300081b0033",
  "linkReferences": {},
  "deployedLinkReferences": {}
}