{
  "_format": "hh-sol-artifact-1",
  "contractName": "Insurance",
  "sourceName": "contracts/Insurance.sol",
  "abi": [
    {
      "inputs": [
        {
          "internalType": "address",
          "name": "_medicalTokenAddress",
          "type": "address"
        },
        {
          "internalType": "uint256",
          "name": "_premiumAmount",
          "type": "uint256"
        },
        {
          "internalType": "uint256",
          "name": "_claimAmount",
          "type": "uint256"
        }
      ],
      "stateMutability": "nonpayable",
      "type": "constructor"
    },
    {
      "anonymous": false,
      "inputs": [
        {
          "indexed": true,
          "internalType": "address",
          "name": "user",
          "type": "address"
        },
        {
          "indexed": false,
          "internalType": "uint256",
          "name": "year",
          "type": "uint256"
        },
        {
          "indexed": false,
          "internalType": "uint256",
          "name": "month",
          "type": "uint256"
        },
        {
          "indexed": false,
          "internalType": "uint256",
          "name": "claimAmount",
          "type": "uint256"
        },
        {
          "indexed": true,
          "internalType": "address",
          "name": "provider",
          "type": "address"
        },
        {
          "indexed": false,
          "internalType": "uint256",
          "name": "medrecIdentifier",
          "type": "uint256"
        }
      ],
      "name": "Claimed",
      "type": "event"
    },
    {
      "anonymous": false,
      "inputs": [
        {
          "indexed": true,
          "internalType": "address",
          "name": "user",
          "type": "address"
        },
        {
          "indexed": false,
          "internalType": "uint256",
          "name": "year",
          "type": "uint256"
        },
        {
          "indexed": false,
          "internalType": "uint256",
          "name": "month",
          "type": "uint256"
        },
        {
          "indexed": false,
          "internalType": "uint256",
          "name": "amount",
          "type": "uint256"
        }
      ],
      "name": "PremiumPaid",
      "type": "event"
    },
    {
      "anonymous": false,
      "inputs": [
        {
          "indexed": false,
          "internalType": "uint256",
          "name": "oldAmount",
          "type": "uint256"
        },
        {
          "indexed": false,
          "internalType": "uint256",
          "name": "newAmount",
          "type": "uint256"
        }
      ],
      "name": "SetPremium",
      "type": "event"
    },
    {
      "inputs": [
        {
          "internalType": "uint256",
          "name": "year",
          "type": "uint256"
        },
        {
          "internalType": "uint256",
          "name": "month",
          "type": "uint256"
        },
        {
          "internalType": "address",
          "name": "provider",
          "type": "address"
        }
      ],
      "name": "claim",
      "outputs": [],
      "stateMutability": "nonpayable",
      "type": "function"
    },
    {
      "inputs": [],
      "name": "claimAmount",
      "outputs": [
        {
          "internalType": "uint256",
          "name": "",
          "type": "uint256"
        }
      ],
      "stateMutability": "view",
      "type": "function"
    },
    {
      "inputs": [
        {
          "internalType": "address",
          "name": "user",
          "type": "address"
        },
        {
          "internalType": "uint256",
          "name": "year",
          "type": "uint256"
        },
        {
          "internalType": "uint256",
          "name": "month",
          "type": "uint256"
        }
      ],
      "name": "isActive",
      "outputs": [
        {
          "internalType": "bool",
          "name": "",
          "type": "bool"
        }
      ],
      "stateMutability": "view",
      "type": "function"
    },
    {
      "inputs": [],
      "name": "medicalToken",
      "outputs": [
        {
          "internalType": "contract IERC20",
          "name": "",
          "type": "address"
        }
      ],
      "stateMutability": "view",
      "type": "function"
    },
    {
      "inputs": [],
      "name": "owner",
      "outputs": [
        {
          "internalType": "address",
          "name": "",
          "type": "address"
        }
      ],
      "stateMutability": "view",
      "type": "function"
    },
    {
      "inputs": [
        {
          "internalType": "uint256",
          "name": "month",
          "type": "uint256"
        },
        {
          "internalType": "uint256",
          "name": "year",
          "type": "uint256"
        }
      ],
      "name": "payPremium",
      "outputs": [],
      "stateMutability": "nonpayable",
      "type": "function"
    },
    {
      "inputs": [],
      "name": "premiumAmount",
      "outputs": [
        {
          "internalType": "uint256",
          "name": "",
          "type": "uint256"
        }
      ],
      "stateMutability": "view",
      "type": "function"
    },
    {
      "inputs": [
        {
          "internalType": "uint256",
          "name": "newClaimAmount",
          "type": "uint256"
        }
      ],
      "name": "setClaimAmount",
      "outputs": [],
      "stateMutability": "nonpayable",
      "type": "function"
    },
    {
      "inputs": [
        {
          "internalType": "uint256",
          "name": "newAmount",
          "type": "uint256"
        }
      ],
      "name": "setPremiumAmount",
      "outputs": [],
      "stateMutability": "nonpayable",
      "type": "function"
    },
    {
      "inputs": [
        {
          "internalType": "uint256",
          "name": "amount",
          "type": "uint256"
        }
      ],
      "name": "withdrawTokens",
      "outputs": [],
      "stateMutability": "nonpayable",
      "type": "function"
    }
  ],
  "bytecode": "0x608060405234801561001057600080fd5b506040516119a33803806119a383398181016040528101906100329190610162565b33600460006101000a81548173ffffffffffffffffffffffffffffffffffffffff021916908373ffffffffffffffffffffffffffffffffffffffff160217905550826000806101000a81548173ffffffffffffffffffffffffffffffffffffffff021916908373ffffffffffffffffffffffffffffffffffffffff16021790555081600181905550806003819055505050506101b5565b600080fd5b600073ffffffffffffffffffffffffffffffffffffffff82169050919050565b60006100f9826100ce565b9050919050565b610109816100ee565b811461011457600080fd5b50565b60008151905061012681610100565b92915050565b6000819050919050565b61013f8161012c565b811461014a57600080fd5b50565b60008151905061015c81610136565b92915050565b60008060006060848603121561017b5761017a6100c9565b5b600061018986828701610117565b935050602061019a8682870161014d565b92505060406101ab8682870161014d565b9150509250925092565b6117df806101c46000396000f3fe608060405234801561001057600080fd5b506004361061009e5760003560e01c80638da5cb5b116100665780638da5cb5b14610135578063ac44ff3114610153578063b1c7ef0c1461016f578063c355bfbb1461018b578063f076b4f0146101bb5761009e565b806313df1111146100a3578063315a095d146100bf57806344530f3a146100db5780637d2ae6a0146100f9578063830953ab14610117575b600080fd5b6100bd60048036038101906100b89190610e2f565b6101d7565b005b6100d960048036038101906100d49190610e2f565b6102b2565b005b6100e3610505565b6040516100f09190610e6b565b60405180910390f35b61010161050b565b60405161010e9190610f05565b60405180910390f35b61011f61052f565b60405161012c9190610e6b565b60405180910390f35b61013d610535565b60405161014a9190610f41565b60405180910390f35b61016d60048036038101906101689190610f88565b61055b565b005b61018960048036038101906101849190610e2f565b6108d4565b005b6101a560048036038101906101a09190610fdb565b61096e565b6040516101b29190611049565b60405180910390f35b6101d560048036038101906101d09190611064565b6109e8565b005b600460009054906101000a900473ffffffffffffffffffffffffffffffffffffffff1673ffffffffffffffffffffffffffffffffffffffff163373ffffffffffffffffffffffffffffffffffffffff1614610267576040517f08c379a000000000000000000000000000000000000000000000000000000000815260040161025e90611127565b60405180910390fd5b60006001549050816001819055507f998ef4a59a00fe914278865e378fb19758bcbf3926e3b63b704c3e0f2cfdb13381836040516102a6929190611147565b60405180910390a15050565b600460009054906101000a900473ffffffffffffffffffffffffffffffffffffffff1673ffffffffffffffffffffffffffffffffffffffff163373ffffffffffffffffffffffffffffffffffffffff1614610342576040517f08c379a000000000000000000000000000000000000000000000000000000000815260040161033990611127565b60405180910390fd5b8060008054906101000a900473ffffffffffffffffffffffffffffffffffffffff1673ffffffffffffffffffffffffffffffffffffffff166370a08231306040518263ffffffff1660e01b815260040161039c9190610f41565b602060405180830381865afa1580156103b9573d6000803e3d6000fd5b505050506040513d601f19601f820116820180604052508101906103dd9190611185565b101561041e576040517f08c379a0000000000000000000000000000000000000000000000000000000008152600401610415906111fe565b60405180910390fd5b60008060009054906101000a900473ffffffffffffffffffffffffffffffffffffffff1673ffffffffffffffffffffffffffffffffffffffff1663a9059cbb33846040518363ffffffff1660e01b815260040161047c92919061121e565b6020604051808303816000875af115801561049b573d6000803e3d6000fd5b505050506040513d601f19601f820116820180604052508101906104bf9190611273565b905080610501576040517f08c379a00000000000000000000000000000000000000000000000000000000081526004016104f8906112ec565b60405180910390fd5b5050565b60015481565b60008054906101000a900473ffffffffffffffffffffffffffffffffffffffff1681565b60035481565b600460009054906101000a900473ffffffffffffffffffffffffffffffffffffffff1681565b6000831161059e576040517f08c379a000000000000000000000000000000000000000000000000000000000815260040161059590611358565b60405180910390fd5b600182101580156105b05750600c8211155b6105ef576040517f08c379a00000000000000000000000000000000000000000000000000000000081526004016105e6906113c4565b60405180910390fd5b600260003373ffffffffffffffffffffffffffffffffffffffff1673ffffffffffffffffffffffffffffffffffffffff1681526020019081526020016000206000848152602001908152602001600020600083815260200190815260200160002060009054906101000a900460ff1661069d576040517f08c379a000000000000000000000000000000000000000000000000000000000815260040161069490611430565b60405180910390fd5b60035460008054906101000a900473ffffffffffffffffffffffffffffffffffffffff1673ffffffffffffffffffffffffffffffffffffffff166370a08231306040518263ffffffff1660e01b81526004016106f99190610f41565b602060405180830381865afa158015610716573d6000803e3d6000fd5b505050506040513d601f19601f8201168201806040525081019061073a9190611185565b101561077b576040517f08c379a0000000000000000000000000000000000000000000000000000000008152600401610772906114c2565b60405180910390fd5b60008060009054906101000a900473ffffffffffffffffffffffffffffffffffffffff1673ffffffffffffffffffffffffffffffffffffffff1663a9059cbb836003546040518363ffffffff1660e01b81526004016107db92919061121e565b6020604051808303816000875af11580156107fa573d6000803e3d6000fd5b505050506040513d601f19601f8201168201806040525081019061081e9190611273565b905080610860576040517f08c379a00000000000000000000000000000000000000000000000000000000081526004016108579061152e565b60405180910390fd5b8173ffffffffffffffffffffffffffffffffffffffff163373ffffffffffffffffffffffffffffffffffffffff167fcfa1614eb03b3cea5b3320973dec53e65166c2845ff0220fa3902dd7b045df5f868660035460016040516108c69493929190611589565b60405180910390a350505050565b600460009054906101000a900473ffffffffffffffffffffffffffffffffffffffff1673ffffffffffffffffffffffffffffffffffffffff163373ffffffffffffffffffffffffffffffffffffffff1614610964576040517f08c379a000000000000000000000000000000000000000000000000000000000815260040161095b90611127565b60405180910390fd5b8060038190555050565b6000600260008573ffffffffffffffffffffffffffffffffffffffff1673ffffffffffffffffffffffffffffffffffffffff1681526020019081526020016000206000848152602001908152602001600020600083815260200190815260200160002060009054906101000a900460ff1690509392505050565b600182101580156109fa5750600c8211155b610a39576040517f08c379a0000000000000000000000000000000000000000000000000000000008152600401610a30906113c4565b60405180910390fd5b60008111610a7c576040517f08c379a0000000000000000000000000000000000000000000000000000000008152600401610a7390611358565b60405180910390fd5b60015460008054906101000a900473ffffffffffffffffffffffffffffffffffffffff1673ffffffffffffffffffffffffffffffffffffffff166370a08231336040518263ffffffff1660e01b8152600401610ad89190610f41565b602060405180830381865afa158015610af5573d6000803e3d6000fd5b505050506040513d601f19601f82011682018060405250810190610b199190611185565b1015610b5a576040517f08c379a0000000000000000000000000000000000000000000000000000000008152600401610b519061161a565b60405180910390fd5b60015460008054906101000a900473ffffffffffffffffffffffffffffffffffffffff1673ffffffffffffffffffffffffffffffffffffffff1663dd62ed3e33306040518363ffffffff1660e01b8152600401610bb892919061163a565b602060405180830381865afa158015610bd5573d6000803e3d6000fd5b505050506040513d601f19601f82011682018060405250810190610bf99190611185565b1015610c3a576040517f08c379a0000000000000000000000000000000000000000000000000000000008152600401610c31906116af565b60405180910390fd5b60008060009054906101000a900473ffffffffffffffffffffffffffffffffffffffff1673ffffffffffffffffffffffffffffffffffffffff166323b872dd33306001546040518463ffffffff1660e01b8152600401610c9c939291906116cf565b6020604051808303816000875af1158015610cbb573d6000803e3d6000fd5b505050506040513d601f19601f82011682018060405250810190610cdf9190611273565b905080610d21576040517f08c379a0000000000000000000000000000000000000000000000000000000008152600401610d1890611752565b60405180910390fd5b6001600260003373ffffffffffffffffffffffffffffffffffffffff1673ffffffffffffffffffffffffffffffffffffffff1681526020019081526020016000206000848152602001908152602001600020600085815260200190815260200160002060006101000a81548160ff0219169083151502179055503373ffffffffffffffffffffffffffffffffffffffff167ffe1888860e237e44639c683e17afbc47be976fdc2b0eded4c2eea13ed37d34548385600154604051610de793929190611772565b60405180910390a2505050565b600080fd5b6000819050919050565b610e0c81610df9565b8114610e1757600080fd5b50565b600081359050610e2981610e03565b92915050565b600060208284031215610e4557610e44610df4565b5b6000610e5384828501610e1a565b91505092915050565b610e6581610df9565b82525050565b6000602082019050610e806000830184610e5c565b92915050565b600073ffffffffffffffffffffffffffffffffffffffff82169050919050565b6000819050919050565b6000610ecb610ec6610ec184610e86565b610ea6565b610e86565b9050919050565b6000610edd82610eb0565b9050919050565b6000610eef82610ed2565b9050919050565b610eff81610ee4565b82525050565b6000602082019050610f1a6000830184610ef6565b92915050565b6000610f2b82610e86565b9050919050565b610f3b81610f20565b82525050565b6000602082019050610f566000830184610f32565b92915050565b610f6581610f20565b8114610f7057600080fd5b50565b600081359050610f8281610f5c565b92915050565b600080600060608486031215610fa157610fa0610df4565b5b6000610faf86828701610e1a565b9350506020610fc086828701610e1a565b9250506040610fd186828701610f73565b9150509250925092565b600080600060608486031215610ff457610ff3610df4565b5b600061100286828701610f73565b935050602061101386828701610e1a565b925050604061102486828701610e1a565b9150509250925092565b60008115159050919050565b6110438161102e565b82525050565b600060208201905061105e600083018461103a565b92915050565b6000806040838503121561107b5761107a610df4565b5b600061108985828601610e1a565b925050602061109a85828601610e1a565b9150509250929050565b600082825260208201905092915050565b7f4f6e6c79206f776e65722063616e2063616c6c20746869732066756e6374696f60008201527f6e00000000000000000000000000000000000000000000000000000000000000602082015250565b60006111116021836110a4565b915061111c826110b5565b604082019050919050565b6000602082019050818103600083015261114081611104565b9050919050565b600060408201905061115c6000830185610e5c565b6111696020830184610e5c565b9392505050565b60008151905061117f81610e03565b92915050565b60006020828403121561119b5761119a610df4565b5b60006111a984828501611170565b91505092915050565b7f4e6f7420656e6f75676820746f6b656e7320696e20636f6e7472616374000000600082015250565b60006111e8601d836110a4565b91506111f3826111b2565b602082019050919050565b60006020820190508181036000830152611217816111db565b9050919050565b60006040820190506112336000830185610f32565b6112406020830184610e5c565b9392505050565b6112508161102e565b811461125b57600080fd5b50565b60008151905061126d81611247565b92915050565b60006020828403121561128957611288610df4565b5b60006112978482850161125e565b91505092915050565b7f5769746864726177616c206661696c6564000000000000000000000000000000600082015250565b60006112d66011836110a4565b91506112e1826112a0565b602082019050919050565b60006020820190508181036000830152611305816112c9565b9050919050565b7f59656172206d757374206265206e6f6e7a65726f000000000000000000000000600082015250565b60006113426014836110a4565b915061134d8261130c565b602082019050919050565b6000602082019050818103600083015261137181611335565b9050919050565b7f4d6f6e7468206d75737420626520312d31320000000000000000000000000000600082015250565b60006113ae6012836110a4565b91506113b982611378565b602082019050919050565b600060208201905081810360008301526113dd816113a1565b9050919050565b7f4e6f742061637469766520666f722074686973206d6f6e74682f796561720000600082015250565b600061141a601e836110a4565b9150611425826113e4565b602082019050919050565b600060208201905081810360008301526114498161140d565b9050919050565b7f496e73756666696369656e7420636f6e747261637420746f6b656e2062616c6160008201527f6e63650000000000000000000000000000000000000000000000000000000000602082015250565b60006114ac6023836110a4565b91506114b782611450565b604082019050919050565b600060208201905081810360008301526114db8161149f565b9050919050565b7f436c61696d207472616e73666572206661696c65640000000000000000000000600082015250565b60006115186015836110a4565b9150611523826114e2565b602082019050919050565b600060208201905081810360008301526115478161150b565b9050919050565b6000819050919050565b600061157361156e6115698461154e565b610ea6565b610df9565b9050919050565b61158381611558565b82525050565b600060808201905061159e6000830187610e5c565b6115ab6020830186610e5c565b6115b86040830185610e5c565b6115c5606083018461157a565b95945050505050565b7f496e73756666696369656e7420746f6b656e2062616c616e6365000000000000600082015250565b6000611604601a836110a4565b915061160f826115ce565b602082019050919050565b60006020820190508181036000830152611633816115f7565b9050919050565b600060408201905061164f6000830185610f32565b61165c6020830184610f32565b9392505050565b7f496e73756666696369656e7420746f6b656e20616c6c6f77616e636500000000600082015250565b6000611699601c836110a4565b91506116a482611663565b602082019050919050565b600060208201905081810360008301526116c88161168c565b9050919050565b60006060820190506116e46000830186610f32565b6116f16020830185610f32565b6116fe6040830184610e5c565b949350505050565b7f546f6b656e207472616e73666572206661696c65640000000000000000000000600082015250565b600061173c6015836110a4565b915061174782611706565b602082019050919050565b6000602082019050818103600083015261176b8161172f565b9050919050565b60006060820190506117876000830186610e5c565b6117946020830185610e5c565b6117a16040830184610e5c565b94935050505056fea2646970667358221220db979fe015e43555f63f35233f3f8944082587d153d8f55066294f5d183ed95964736f6c634300081b0033",
  "linkReferences": {},
  "deployedLinkReferences": {}
}