{
  "_format": "hh-sol-artifact-1",
  "contractName": "Insurance",
  "sourceName": "contracts/Insurance.sol",
  "abi": [
    {
      "inputs": [
        {
          "internalType": "address",
          "name": "_medicalTokenAddress",
          "type": "address"
        },
        {
          "internalType": "address",
          "name": "_oracleAddress",
          "type": "address"
        },
        {
          "internalType": "address",
          "name": "_medicalRecordContractAddress",
          "type": "address"
        }
      ],
      "stateMutability": "nonpayable",
      "type": "constructor"
    },
    {
      "anonymous": false,
      "inputs": [
        {
          "indexed": true,
          "internalType": "address",
          "name": "user",
          "type": "address"
        },
        {
          "indexed": false,
          "internalType": "uint256",
          "name": "year",
          "type": "uint256"
        },
        {
          "indexed": false,
          "internalType": "uint256",
          "name": "month",
          "type": "uint256"
        },
        {
          "indexed": false,
          "internalType": "uint256",
          "name": "claimAmount",
          "type": "uint256"
        },
        {
          "indexed": true,
          "internalType": "address",
          "name": "provider",
          "type": "address"
        },
        {
          "indexed": false,
          "internalType": "uint64",
          "name": "nik",
          "type": "uint64"
        },
        {
          "indexed": false,
          "internalType": "uint16",
          "name": "recordIndex",
          "type": "uint16"
        }
      ],
      "name": "Claimed",
      "type": "event"
    },
    {
      "anonymous": false,
      "inputs": [
        {
          "indexed": true,
          "internalType": "address",
          "name": "user",
          "type": "address"
        },
        {
          "indexed": false,
          "internalType": "uint256",
          "name": "year",
          "type": "uint256"
        },
        {
          "indexed": false,
          "internalType": "uint256",
          "name": "month",
          "type": "uint256"
        },
        {
          "indexed": false,
          "internalType": "uint256",
          "name": "amount",
          "type": "uint256"
        }
      ],
      "name": "PremiumPaid",
      "type": "event"
    },
    {
      "anonymous": false,
      "inputs": [
        {
          "indexed": false,
          "internalType": "uint256",
          "name": "oldAmount",
          "type": "uint256"
        },
        {
          "indexed": false,
          "internalType": "uint256",
          "name": "newAmount",
          "type": "uint256"
        }
      ],
      "name": "SetPremium",
      "type": "event"
    },
    {
      "inputs": [
        {
          "internalType": "uint256",
          "name": "year",
          "type": "uint256"
        },
        {
          "internalType": "uint256",
          "name": "month",
          "type": "uint256"
        },
        {
          "internalType": "address",
          "name": "provider",
          "type": "address"
        },
        {
          "internalType": "uint64",
          "name": "nik",
          "type": "uint64"
        },
        {
          "internalType": "uint16",
          "name": "recordIndex",
          "type": "uint16"
        }
      ],
      "name": "claim",
      "outputs": [],
      "stateMutability": "nonpayable",
      "type": "function"
    },
    {
      "inputs": [],
      "name": "claimAmount",
      "outputs": [
        {
          "internalType": "uint256",
          "name": "",
          "type": "uint256"
        }
      ],
      "stateMutability": "view",
      "type": "function"
    },
    {
      "inputs": [
        {
          "internalType": "uint64",
          "name": "nik",
          "type": "uint64"
        },
        {
          "internalType": "uint256",
          "name": "year",
          "type": "uint256"
        },
        {
          "internalType": "uint256",
          "name": "month",
          "type": "uint256"
        }
      ],
      "name": "isActive",
      "outputs": [
        {
          "internalType": "bool",
          "name": "",
          "type": "bool"
        }
      ],
      "stateMutability": "view",
      "type": "function"
    },
    {
      "inputs": [],
      "name": "medicalToken",
      "outputs": [
        {
          "internalType": "contract IERC20",
          "name": "",
          "type": "address"
        }
      ],
      "stateMutability": "view",
      "type": "function"
    },
    {
      "inputs": [],
      "name": "owner",
      "outputs": [
        {
          "internalType": "address",
          "name": "",
          "type": "address"
        }
      ],
      "stateMutability": "view",
      "type": "function"
    },
    {
      "inputs": [
        {
          "internalType": "uint64",
          "name": "nik",
          "type": "uint64"
        },
        {
          "internalType": "uint256",
          "name": "month",
          "type": "uint256"
        },
        {
          "internalType": "uint256",
          "name": "year",
          "type": "uint256"
        }
      ],
      "name": "payPremium",
      "outputs": [],
      "stateMutability": "nonpayable",
      "type": "function"
    },
    {
      "inputs": [],
      "name": "premiumAmount",
      "outputs": [
        {
          "internalType": "uint256",
          "name": "",
          "type": "uint256"
        }
      ],
      "stateMutability": "view",
      "type": "function"
    },
    {
      "inputs": [],
      "name": "priceOracle",
      "outputs": [
        {
          "internalType": "contract IOracle",
          "name": "",
          "type": "address"
        }
      ],
      "stateMutability": "view",
      "type": "function"
    },
    {
      "inputs": [
        {
          "internalType": "uint256",
          "name": "newClaimAmount",
          "type": "uint256"
        }
      ],
      "name": "setClaimAmount",
      "outputs": [],
      "stateMutability": "nonpayable",
      "type": "function"
    },
    {
      "inputs": [
        {
          "internalType": "uint256",
          "name": "newAmount",
          "type": "uint256"
        }
      ],
      "name": "setPremiumAmount",
      "outputs": [],
      "stateMutability": "nonpayable",
      "type": "function"
    },
    {
      "inputs": [
        {
          "internalType": "uint256",
          "name": "amount",
          "type": "uint256"
        }
      ],
      "name": "withdrawTokens",
      "outputs": [],
      "stateMutability": "nonpayable",
      "type": "function"
    }
  ],
  "bytecode": "0x608060405234801561001057600080fd5b50604051611c6d380380611c6d833981810160405281019061003291906101a0565b33600660006101000a81548173ffffffffffffffffffffffffffffffffffffffff021916908373ffffffffffffffffffffffffffffffffffffffff16021790555082600160006101000a81548173ffffffffffffffffffffffffffffffffffffffff021916908373ffffffffffffffffffffffffffffffffffffffff16021790555081600260006101000a81548173ffffffffffffffffffffffffffffffffffffffff021916908373ffffffffffffffffffffffffffffffffffffffff160217905550806000806101000a81548173ffffffffffffffffffffffffffffffffffffffff021916908373ffffffffffffffffffffffffffffffffffffffff1602179055505050506101f3565b600080fd5b600073ffffffffffffffffffffffffffffffffffffffff82169050919050565b600061016d82610142565b9050919050565b61017d81610162565b811461018857600080fd5b50565b60008151905061019a81610174565b92915050565b6000806000606084860312156101b9576101b861013d565b5b60006101c78682870161018b565b93505060206101d88682870161018b565b92505060406101e98682870161018b565b9150509250925092565b611a6b806102026000396000f3fe608060405234801561001057600080fd5b50600436106100a95760003560e01c80637d2ae6a0116100715780637d2ae6a01461013e578063830953ab1461015c5780638da5cb5b1461017a5780639719ed8e146101985780639c866fea146101b4578063b1c7ef0c146101e4576100a9565b806313df1111146100ae5780632630c12f146100ca578063315a095d146100e8578063410548ae1461010457806344530f3a14610120575b600080fd5b6100c860048036038101906100c39190610ff5565b610200565b005b6100d26102db565b6040516100df91906110a1565b60405180910390f35b61010260048036038101906100fd9190610ff5565b610301565b005b61011e60048036038101906101199190611174565b610557565b005b6101286109de565b60405161013591906111fe565b60405180910390f35b6101466109e4565b604051610153919061123a565b60405180910390f35b610164610a0a565b60405161017191906111fe565b60405180910390f35b610182610a10565b60405161018f9190611264565b60405180910390f35b6101b260048036038101906101ad919061127f565b610a36565b005b6101ce60048036038101906101c9919061127f565b610ebe565b6040516101db91906112ed565b60405180910390f35b6101fe60048036038101906101f99190610ff5565b610f20565b005b600660009054906101000a900473ffffffffffffffffffffffffffffffffffffffff1673ffffffffffffffffffffffffffffffffffffffff163373ffffffffffffffffffffffffffffffffffffffff1614610290576040517f08c379a00000000000000000000000000000000000000000000000000000000081526004016102879061138b565b60405180910390fd5b60006003549050816003819055507f998ef4a59a00fe914278865e378fb19758bcbf3926e3b63b704c3e0f2cfdb13381836040516102cf9291906113ab565b60405180910390a15050565b600260009054906101000a900473ffffffffffffffffffffffffffffffffffffffff1681565b600660009054906101000a900473ffffffffffffffffffffffffffffffffffffffff1673ffffffffffffffffffffffffffffffffffffffff163373ffffffffffffffffffffffffffffffffffffffff1614610391576040517f08c379a00000000000000000000000000000000000000000000000000000000081526004016103889061138b565b60405180910390fd5b80600160009054906101000a900473ffffffffffffffffffffffffffffffffffffffff1673ffffffffffffffffffffffffffffffffffffffff166370a08231306040518263ffffffff1660e01b81526004016103ed9190611264565b602060405180830381865afa15801561040a573d6000803e3d6000fd5b505050506040513d601f19601f8201168201806040525081019061042e91906113e9565b101561046f576040517f08c379a000000000000000000000000000000000000000000000000000000000815260040161046690611462565b60405180910390fd5b6000600160009054906101000a900473ffffffffffffffffffffffffffffffffffffffff1673ffffffffffffffffffffffffffffffffffffffff1663a9059cbb33846040518363ffffffff1660e01b81526004016104ce929190611482565b6020604051808303816000875af11580156104ed573d6000803e3d6000fd5b505050506040513d601f19601f8201168201806040525081019061051191906114d7565b905080610553576040517f08c379a000000000000000000000000000000000000000000000000000000000815260040161054a90611550565b60405180910390fd5b5050565b6000600260009054906101000a900473ffffffffffffffffffffffffffffffffffffffff1673ffffffffffffffffffffffffffffffffffffffff166321f6d5876040518163ffffffff1660e01b8152600401602060405180830381865afa1580156105c6573d6000803e3d6000fd5b505050506040513d601f19601f820116820180604052508101906105ea91906113e9565b90506000861161062f576040517f08c379a0000000000000000000000000000000000000000000000000000000008152600401610626906115bc565b60405180910390fd5b600185101580156106415750600c8511155b610680576040517f08c379a000000000000000000000000000000000000000000000000000000000815260040161067790611628565b60405180910390fd5b600560008467ffffffffffffffff1667ffffffffffffffff1681526020019081526020016000206000878152602001908152602001600020600086815260200190815260200160002060009054906101000a900460ff16610716576040517f08c379a000000000000000000000000000000000000000000000000000000000815260040161070d90611694565b60405180910390fd5b80600160009054906101000a900473ffffffffffffffffffffffffffffffffffffffff1673ffffffffffffffffffffffffffffffffffffffff166370a08231306040518263ffffffff1660e01b81526004016107729190611264565b602060405180830381865afa15801561078f573d6000803e3d6000fd5b505050506040513d601f19601f820116820180604052508101906107b391906113e9565b10156107f4576040517f08c379a00000000000000000000000000000000000000000000000000000000081526004016107eb90611726565b60405180910390fd5b60008054906101000a900473ffffffffffffffffffffffffffffffffffffffff1673ffffffffffffffffffffffffffffffffffffffff16631dee3ed8848460016040518463ffffffff1660e01b815260040161085293929190611764565b600060405180830381600087803b15801561086c57600080fd5b505af1158015610880573d6000803e3d6000fd5b505050508373ffffffffffffffffffffffffffffffffffffffff163373ffffffffffffffffffffffffffffffffffffffff167f05a01f5e64e44f8bc01d82c41d234df58dfbbe48b1d1c4babba3003a67a9fada88888588886040516108e995949392919061179b565b60405180910390a36000600160009054906101000a900473ffffffffffffffffffffffffffffffffffffffff1673ffffffffffffffffffffffffffffffffffffffff1663a9059cbb86846040518363ffffffff1660e01b8152600401610950929190611482565b6020604051808303816000875af115801561096f573d6000803e3d6000fd5b505050506040513d601f19601f8201168201806040525081019061099391906114d7565b9050806109d5576040517f08c379a00000000000000000000000000000000000000000000000000000000081526004016109cc9061183a565b60405180910390fd5b50505050505050565b60035481565b600160009054906101000a900473ffffffffffffffffffffffffffffffffffffffff1681565b60045481565b600660009054906101000a900473ffffffffffffffffffffffffffffffffffffffff1681565b6000600260009054906101000a900473ffffffffffffffffffffffffffffffffffffffff1673ffffffffffffffffffffffffffffffffffffffff166349394b0d6040518163ffffffff1660e01b8152600401602060405180830381865afa158015610aa5573d6000803e3d6000fd5b505050506040513d601f19601f82011682018060405250810190610ac991906113e9565b905060018310158015610add5750600c8311155b610b1c576040517f08c379a0000000000000000000000000000000000000000000000000000000008152600401610b1390611628565b60405180910390fd5b60008211610b5f576040517f08c379a0000000000000000000000000000000000000000000000000000000008152600401610b56906115bc565b60405180910390fd5b80600160009054906101000a900473ffffffffffffffffffffffffffffffffffffffff1673ffffffffffffffffffffffffffffffffffffffff166370a08231336040518263ffffffff1660e01b8152600401610bbb9190611264565b602060405180830381865afa158015610bd8573d6000803e3d6000fd5b505050506040513d601f19601f82011682018060405250810190610bfc91906113e9565b1015610c3d576040517f08c379a0000000000000000000000000000000000000000000000000000000008152600401610c34906118a6565b60405180910390fd5b80600160009054906101000a900473ffffffffffffffffffffffffffffffffffffffff1673ffffffffffffffffffffffffffffffffffffffff1663dd62ed3e33306040518363ffffffff1660e01b8152600401610c9b9291906118c6565b602060405180830381865afa158015610cb8573d6000803e3d6000fd5b505050506040513d601f19601f82011682018060405250810190610cdc91906113e9565b1015610d1d576040517f08c379a0000000000000000000000000000000000000000000000000000000008152600401610d149061193b565b60405180910390fd5b6001600560008667ffffffffffffffff1667ffffffffffffffff1681526020019081526020016000206000848152602001908152602001600020600085815260200190815260200160002060006101000a81548160ff0219169083151502179055503373ffffffffffffffffffffffffffffffffffffffff167ffe1888860e237e44639c683e17afbc47be976fdc2b0eded4c2eea13ed37d3454838584604051610dc99392919061195b565b60405180910390a26000600160009054906101000a900473ffffffffffffffffffffffffffffffffffffffff1673ffffffffffffffffffffffffffffffffffffffff166323b872dd3330856040518463ffffffff1660e01b8152600401610e3293929190611992565b6020604051808303816000875af1158015610e51573d6000803e3d6000fd5b505050506040513d601f19601f82011682018060405250810190610e7591906114d7565b905080610eb7576040517f08c379a0000000000000000000000000000000000000000000000000000000008152600401610eae90611a15565b60405180910390fd5b5050505050565b6000600560008567ffffffffffffffff1667ffffffffffffffff1681526020019081526020016000206000848152602001908152602001600020600083815260200190815260200160002060009054906101000a900460ff1690509392505050565b600660009054906101000a900473ffffffffffffffffffffffffffffffffffffffff1673ffffffffffffffffffffffffffffffffffffffff163373ffffffffffffffffffffffffffffffffffffffff1614610fb0576040517f08c379a0000000000000000000000000000000000000000000000000000000008152600401610fa79061138b565b60405180910390fd5b8060048190555050565b600080fd5b6000819050919050565b610fd281610fbf565b8114610fdd57600080fd5b50565b600081359050610fef81610fc9565b92915050565b60006020828403121561100b5761100a610fba565b5b600061101984828501610fe0565b91505092915050565b600073ffffffffffffffffffffffffffffffffffffffff82169050919050565b6000819050919050565b600061106761106261105d84611022565b611042565b611022565b9050919050565b60006110798261104c565b9050919050565b600061108b8261106e565b9050919050565b61109b81611080565b82525050565b60006020820190506110b66000830184611092565b92915050565b60006110c782611022565b9050919050565b6110d7816110bc565b81146110e257600080fd5b50565b6000813590506110f4816110ce565b92915050565b600067ffffffffffffffff82169050919050565b611117816110fa565b811461112257600080fd5b50565b6000813590506111348161110e565b92915050565b600061ffff82169050919050565b6111518161113a565b811461115c57600080fd5b50565b60008135905061116e81611148565b92915050565b600080600080600060a086880312156111905761118f610fba565b5b600061119e88828901610fe0565b95505060206111af88828901610fe0565b94505060406111c0888289016110e5565b93505060606111d188828901611125565b92505060806111e28882890161115f565b9150509295509295909350565b6111f881610fbf565b82525050565b600060208201905061121360008301846111ef565b92915050565b60006112248261106e565b9050919050565b61123481611219565b82525050565b600060208201905061124f600083018461122b565b92915050565b61125e816110bc565b82525050565b60006020820190506112796000830184611255565b92915050565b60008060006060848603121561129857611297610fba565b5b60006112a686828701611125565b93505060206112b786828701610fe0565b92505060406112c886828701610fe0565b9150509250925092565b60008115159050919050565b6112e7816112d2565b82525050565b600060208201905061130260008301846112de565b92915050565b600082825260208201905092915050565b7f4f6e6c79206f776e65722063616e2063616c6c20746869732066756e6374696f60008201527f6e00000000000000000000000000000000000000000000000000000000000000602082015250565b6000611375602183611308565b915061138082611319565b604082019050919050565b600060208201905081810360008301526113a481611368565b9050919050565b60006040820190506113c060008301856111ef565b6113cd60208301846111ef565b9392505050565b6000815190506113e381610fc9565b92915050565b6000602082840312156113ff576113fe610fba565b5b600061140d848285016113d4565b91505092915050565b7f4e6f7420656e6f75676820746f6b656e7320696e20636f6e7472616374000000600082015250565b600061144c601d83611308565b915061145782611416565b602082019050919050565b6000602082019050818103600083015261147b8161143f565b9050919050565b60006040820190506114976000830185611255565b6114a460208301846111ef565b9392505050565b6114b4816112d2565b81146114bf57600080fd5b50565b6000815190506114d1816114ab565b92915050565b6000602082840312156114ed576114ec610fba565b5b60006114fb848285016114c2565b91505092915050565b7f5769746864726177616c206661696c6564000000000000000000000000000000600082015250565b600061153a601183611308565b915061154582611504565b602082019050919050565b600060208201905081810360008301526115698161152d565b9050919050565b7f59656172206d757374206265206e6f6e7a65726f000000000000000000000000600082015250565b60006115a6601483611308565b91506115b182611570565b602082019050919050565b600060208201905081810360008301526115d581611599565b9050919050565b7f4d6f6e7468206d75737420626520312d31320000000000000000000000000000600082015250565b6000611612601283611308565b915061161d826115dc565b602082019050919050565b6000602082019050818103600083015261164181611605565b9050919050565b7f4e6f742061637469766520666f722074686973206d6f6e74682f796561720000600082015250565b600061167e601e83611308565b915061168982611648565b602082019050919050565b600060208201905081810360008301526116ad81611671565b9050919050565b7f496e73756666696369656e7420636f6e747261637420746f6b656e2062616c6160008201527f6e63650000000000000000000000000000000000000000000000000000000000602082015250565b6000611710602383611308565b915061171b826116b4565b604082019050919050565b6000602082019050818103600083015261173f81611703565b9050919050565b61174f816110fa565b82525050565b61175e8161113a565b82525050565b60006060820190506117796000830186611746565b6117866020830185611755565b61179360408301846112de565b949350505050565b600060a0820190506117b060008301886111ef565b6117bd60208301876111ef565b6117ca60408301866111ef565b6117d76060830185611746565b6117e46080830184611755565b9695505050505050565b7f436c61696d207472616e73666572206661696c65640000000000000000000000600082015250565b6000611824601583611308565b915061182f826117ee565b602082019050919050565b6000602082019050818103600083015261185381611817565b9050919050565b7f496e73756666696369656e7420746f6b656e2062616c616e6365000000000000600082015250565b6000611890601a83611308565b915061189b8261185a565b602082019050919050565b600060208201905081810360008301526118bf81611883565b9050919050565b60006040820190506118db6000830185611255565b6118e86020830184611255565b9392505050565b7f496e73756666696369656e7420746f6b656e20616c6c6f77616e636500000000600082015250565b6000611925601c83611308565b9150611930826118ef565b602082019050919050565b6000602082019050818103600083015261195481611918565b9050919050565b600060608201905061197060008301866111ef565b61197d60208301856111ef565b61198a60408301846111ef565b949350505050565b60006060820190506119a76000830186611255565b6119b46020830185611255565b6119c160408301846111ef565b949350505050565b7f546f6b656e207472616e73666572206661696c65640000000000000000000000600082015250565b60006119ff601583611308565b9150611a0a826119c9565b602082019050919050565b60006020820190508181036000830152611a2e816119f2565b905091905056fea264697066735822122056d4f4e4e1a0fd5351487c2abfa46df98e09029b4d7ef82aa5d21f1ea616371064736f6c634300081b0033",
  "linkReferences": {},
  "deployedLinkReferences": {}
}