{
  "_format": "hh-sol-artifact-1",
  "contractName": "Insurance",
  "sourceName": "contracts/Insurance.sol",
  "abi": [
    {
      "inputs": [
        {
          "internalType": "address",
          "name": "_medicalTokenAddress",
          "type": "address"
        },
        {
          "internalType": "address",
          "name": "_oracleAddress",
          "type": "address"
        }
      ],
      "stateMutability": "nonpayable",
      "type": "constructor"
    },
    {
      "anonymous": false,
      "inputs": [
        {
          "indexed": true,
          "internalType": "address",
          "name": "user",
          "type": "address"
        },
        {
          "indexed": false,
          "internalType": "uint256",
          "name": "year",
          "type": "uint256"
        },
        {
          "indexed": false,
          "internalType": "uint256",
          "name": "month",
          "type": "uint256"
        },
        {
          "indexed": false,
          "internalType": "uint256",
          "name": "claimAmount",
          "type": "uint256"
        },
        {
          "indexed": true,
          "internalType": "address",
          "name": "provider",
          "type": "address"
        },
        {
          "indexed": false,
          "internalType": "uint256",
          "name": "medrecIdentifier",
          "type": "uint256"
        }
      ],
      "name": "Claimed",
      "type": "event"
    },
    {
      "anonymous": false,
      "inputs": [
        {
          "indexed": true,
          "internalType": "address",
          "name": "user",
          "type": "address"
        },
        {
          "indexed": false,
          "internalType": "uint256",
          "name": "year",
          "type": "uint256"
        },
        {
          "indexed": false,
          "internalType": "uint256",
          "name": "month",
          "type": "uint256"
        },
        {
          "indexed": false,
          "internalType": "uint256",
          "name": "amount",
          "type": "uint256"
        }
      ],
      "name": "PremiumPaid",
      "type": "event"
    },
    {
      "anonymous": false,
      "inputs": [
        {
          "indexed": false,
          "internalType": "uint256",
          "name": "oldAmount",
          "type": "uint256"
        },
        {
          "indexed": false,
          "internalType": "uint256",
          "name": "newAmount",
          "type": "uint256"
        }
      ],
      "name": "SetPremium",
      "type": "event"
    },
    {
      "inputs": [
        {
          "internalType": "uint256",
          "name": "year",
          "type": "uint256"
        },
        {
          "internalType": "uint256",
          "name": "month",
          "type": "uint256"
        },
        {
          "internalType": "address",
          "name": "provider",
          "type": "address"
        },
        {
          "internalType": "uint256",
          "name": "medrecIdentifier",
          "type": "uint256"
        }
      ],
      "name": "claim",
      "outputs": [],
      "stateMutability": "nonpayable",
      "type": "function"
    },
    {
      "inputs": [],
      "name": "claimAmount",
      "outputs": [
        {
          "internalType": "uint256",
          "name": "",
          "type": "uint256"
        }
      ],
      "stateMutability": "view",
      "type": "function"
    },
    {
      "inputs": [
        {
          "internalType": "address",
          "name": "user",
          "type": "address"
        },
        {
          "internalType": "uint256",
          "name": "year",
          "type": "uint256"
        },
        {
          "internalType": "uint256",
          "name": "month",
          "type": "uint256"
        }
      ],
      "name": "isActive",
      "outputs": [
        {
          "internalType": "bool",
          "name": "",
          "type": "bool"
        }
      ],
      "stateMutability": "view",
      "type": "function"
    },
    {
      "inputs": [],
      "name": "medicalToken",
      "outputs": [
        {
          "internalType": "contract IERC20",
          "name": "",
          "type": "address"
        }
      ],
      "stateMutability": "view",
      "type": "function"
    },
    {
      "inputs": [],
      "name": "owner",
      "outputs": [
        {
          "internalType": "address",
          "name": "",
          "type": "address"
        }
      ],
      "stateMutability": "view",
      "type": "function"
    },
    {
      "inputs": [
        {
          "internalType": "uint256",
          "name": "month",
          "type": "uint256"
        },
        {
          "internalType": "uint256",
          "name": "year",
          "type": "uint256"
        }
      ],
      "name": "payPremium",
      "outputs": [],
      "stateMutability": "nonpayable",
      "type": "function"
    },
    {
      "inputs": [],
      "name": "premiumAmount",
      "outputs": [
        {
          "internalType": "uint256",
          "name": "",
          "type": "uint256"
        }
      ],
      "stateMutability": "view",
      "type": "function"
    },
    {
      "inputs": [],
      "name": "priceOracle",
      "outputs": [
        {
          "internalType": "contract IOracle",
          "name": "",
          "type": "address"
        }
      ],
      "stateMutability": "view",
      "type": "function"
    },
    {
      "inputs": [
        {
          "internalType": "uint256",
          "name": "newClaimAmount",
          "type": "uint256"
        }
      ],
      "name": "setClaimAmount",
      "outputs": [],
      "stateMutability": "nonpayable",
      "type": "function"
    },
    {
      "inputs": [
        {
          "internalType": "uint256",
          "name": "newAmount",
          "type": "uint256"
        }
      ],
      "name": "setPremiumAmount",
      "outputs": [],
      "stateMutability": "nonpayable",
      "type": "function"
    },
    {
      "inputs": [
        {
          "internalType": "uint256",
          "name": "amount",
          "type": "uint256"
        }
      ],
      "name": "withdrawTokens",
      "outputs": [],
      "stateMutability": "nonpayable",
      "type": "function"
    }
  ],
  "bytecode": "0x608060405234801561001057600080fd5b50604051611b0e380380611b0e8339818101604052810190610032919061015e565b33600560006101000a81548173ffffffffffffffffffffffffffffffffffffffff021916908373ffffffffffffffffffffffffffffffffffffffff160217905550816000806101000a81548173ffffffffffffffffffffffffffffffffffffffff021916908373ffffffffffffffffffffffffffffffffffffffff16021790555080600160006101000a81548173ffffffffffffffffffffffffffffffffffffffff021916908373ffffffffffffffffffffffffffffffffffffffff160217905550505061019e565b600080fd5b600073ffffffffffffffffffffffffffffffffffffffff82169050919050565b600061012b82610100565b9050919050565b61013b81610120565b811461014657600080fd5b50565b60008151905061015881610132565b92915050565b60008060408385031215610175576101746100fb565b5b600061018385828601610149565b925050602061019485828601610149565b9150509250929050565b611961806101ad6000396000f3fe608060405234801561001057600080fd5b50600436106100a95760003560e01c80637d2ae6a0116100715780637d2ae6a01461013e578063830953ab1461015c5780638da5cb5b1461017a578063b1c7ef0c14610198578063c355bfbb146101b4578063f076b4f0146101e4576100a9565b806313df1111146100ae5780632630c12f146100ca578063315a095d146100e857806344530f3a1461010457806374dd221514610122575b600080fd5b6100c860048036038101906100c39190610f9c565b610200565b005b6100d26102db565b6040516100df9190611048565b60405180910390f35b61010260048036038101906100fd9190610f9c565b610301565b005b61010c610554565b6040516101199190611072565b60405180910390f35b61013c600480360381019061013791906110cb565b61055a565b005b610146610963565b6040516101539190611153565b60405180910390f35b610164610987565b6040516101719190611072565b60405180910390f35b61018261098d565b60405161018f919061117d565b60405180910390f35b6101b260048036038101906101ad9190610f9c565b6109b3565b005b6101ce60048036038101906101c99190611198565b610a4d565b6040516101db9190611206565b60405180910390f35b6101fe60048036038101906101f99190611221565b610ac7565b005b600560009054906101000a900473ffffffffffffffffffffffffffffffffffffffff1673ffffffffffffffffffffffffffffffffffffffff163373ffffffffffffffffffffffffffffffffffffffff1614610290576040517f08c379a0000000000000000000000000000000000000000000000000000000008152600401610287906112e4565b60405180910390fd5b60006002549050816002819055507f998ef4a59a00fe914278865e378fb19758bcbf3926e3b63b704c3e0f2cfdb13381836040516102cf929190611304565b60405180910390a15050565b600160009054906101000a900473ffffffffffffffffffffffffffffffffffffffff1681565b600560009054906101000a900473ffffffffffffffffffffffffffffffffffffffff1673ffffffffffffffffffffffffffffffffffffffff163373ffffffffffffffffffffffffffffffffffffffff1614610391576040517f08c379a0000000000000000000000000000000000000000000000000000000008152600401610388906112e4565b60405180910390fd5b8060008054906101000a900473ffffffffffffffffffffffffffffffffffffffff1673ffffffffffffffffffffffffffffffffffffffff166370a08231306040518263ffffffff1660e01b81526004016103eb919061117d565b602060405180830381865afa158015610408573d6000803e3d6000fd5b505050506040513d601f19601f8201168201806040525081019061042c9190611342565b101561046d576040517f08c379a0000000000000000000000000000000000000000000000000000000008152600401610464906113bb565b60405180910390fd5b60008060009054906101000a900473ffffffffffffffffffffffffffffffffffffffff1673ffffffffffffffffffffffffffffffffffffffff1663a9059cbb33846040518363ffffffff1660e01b81526004016104cb9291906113db565b6020604051808303816000875af11580156104ea573d6000803e3d6000fd5b505050506040513d601f19601f8201168201806040525081019061050e9190611430565b905080610550576040517f08c379a0000000000000000000000000000000000000000000000000000000008152600401610547906114a9565b60405180910390fd5b5050565b60025481565b6000600160009054906101000a900473ffffffffffffffffffffffffffffffffffffffff1673ffffffffffffffffffffffffffffffffffffffff166321f6d5876040518163ffffffff1660e01b8152600401602060405180830381865afa1580156105c9573d6000803e3d6000fd5b505050506040513d601f19601f820116820180604052508101906105ed9190611342565b905060008511610632576040517f08c379a000000000000000000000000000000000000000000000000000000000815260040161062990611515565b60405180910390fd5b600184101580156106445750600c8411155b610683576040517f08c379a000000000000000000000000000000000000000000000000000000000815260040161067a90611581565b60405180910390fd5b600460003373ffffffffffffffffffffffffffffffffffffffff1673ffffffffffffffffffffffffffffffffffffffff1681526020019081526020016000206000868152602001908152602001600020600085815260200190815260200160002060009054906101000a900460ff16610731576040517f08c379a0000000000000000000000000000000000000000000000000000000008152600401610728906115ed565b60405180910390fd5b8060008054906101000a900473ffffffffffffffffffffffffffffffffffffffff1673ffffffffffffffffffffffffffffffffffffffff166370a08231306040518263ffffffff1660e01b815260040161078b919061117d565b602060405180830381865afa1580156107a8573d6000803e3d6000fd5b505050506040513d601f19601f820116820180604052508101906107cc9190611342565b101561080d576040517f08c379a00000000000000000000000000000000000000000000000000000000081526004016108049061167f565b60405180910390fd5b60008060009054906101000a900473ffffffffffffffffffffffffffffffffffffffff1673ffffffffffffffffffffffffffffffffffffffff1663a9059cbb85846040518363ffffffff1660e01b815260040161086b9291906113db565b6020604051808303816000875af115801561088a573d6000803e3d6000fd5b505050506040513d601f19601f820116820180604052508101906108ae9190611430565b9050806108f0576040517f08c379a00000000000000000000000000000000000000000000000000000000081526004016108e7906116eb565b60405180910390fd5b8373ffffffffffffffffffffffffffffffffffffffff163373ffffffffffffffffffffffffffffffffffffffff167fcfa1614eb03b3cea5b3320973dec53e65166c2845ff0220fa3902dd7b045df5f88888688604051610953949392919061170b565b60405180910390a3505050505050565b60008054906101000a900473ffffffffffffffffffffffffffffffffffffffff1681565b60035481565b600560009054906101000a900473ffffffffffffffffffffffffffffffffffffffff1681565b600560009054906101000a900473ffffffffffffffffffffffffffffffffffffffff1673ffffffffffffffffffffffffffffffffffffffff163373ffffffffffffffffffffffffffffffffffffffff1614610a43576040517f08c379a0000000000000000000000000000000000000000000000000000000008152600401610a3a906112e4565b60405180910390fd5b8060038190555050565b6000600460008573ffffffffffffffffffffffffffffffffffffffff1673ffffffffffffffffffffffffffffffffffffffff1681526020019081526020016000206000848152602001908152602001600020600083815260200190815260200160002060009054906101000a900460ff1690509392505050565b6000600160009054906101000a900473ffffffffffffffffffffffffffffffffffffffff1673ffffffffffffffffffffffffffffffffffffffff166349394b0d6040518163ffffffff1660e01b8152600401602060405180830381865afa158015610b36573d6000803e3d6000fd5b505050506040513d601f19601f82011682018060405250810190610b5a9190611342565b905060018310158015610b6e5750600c8311155b610bad576040517f08c379a0000000000000000000000000000000000000000000000000000000008152600401610ba490611581565b60405180910390fd5b60008211610bf0576040517f08c379a0000000000000000000000000000000000000000000000000000000008152600401610be790611515565b60405180910390fd5b8060008054906101000a900473ffffffffffffffffffffffffffffffffffffffff1673ffffffffffffffffffffffffffffffffffffffff166370a08231336040518263ffffffff1660e01b8152600401610c4a919061117d565b602060405180830381865afa158015610c67573d6000803e3d6000fd5b505050506040513d601f19601f82011682018060405250810190610c8b9190611342565b1015610ccc576040517f08c379a0000000000000000000000000000000000000000000000000000000008152600401610cc39061179c565b60405180910390fd5b8060008054906101000a900473ffffffffffffffffffffffffffffffffffffffff1673ffffffffffffffffffffffffffffffffffffffff1663dd62ed3e33306040518363ffffffff1660e01b8152600401610d289291906117bc565b602060405180830381865afa158015610d45573d6000803e3d6000fd5b505050506040513d601f19601f82011682018060405250810190610d699190611342565b1015610daa576040517f08c379a0000000000000000000000000000000000000000000000000000000008152600401610da190611831565b60405180910390fd5b60008060009054906101000a900473ffffffffffffffffffffffffffffffffffffffff1673ffffffffffffffffffffffffffffffffffffffff166323b872dd3330856040518463ffffffff1660e01b8152600401610e0a93929190611851565b6020604051808303816000875af1158015610e29573d6000803e3d6000fd5b505050506040513d601f19601f82011682018060405250810190610e4d9190611430565b905080610e8f576040517f08c379a0000000000000000000000000000000000000000000000000000000008152600401610e86906118d4565b60405180910390fd5b6001600460003373ffffffffffffffffffffffffffffffffffffffff1673ffffffffffffffffffffffffffffffffffffffff1681526020019081526020016000206000858152602001908152602001600020600086815260200190815260200160002060006101000a81548160ff0219169083151502179055503373ffffffffffffffffffffffffffffffffffffffff167ffe1888860e237e44639c683e17afbc47be976fdc2b0eded4c2eea13ed37d3454848685604051610f53939291906118f4565b60405180910390a250505050565b600080fd5b6000819050919050565b610f7981610f66565b8114610f8457600080fd5b50565b600081359050610f9681610f70565b92915050565b600060208284031215610fb257610fb1610f61565b5b6000610fc084828501610f87565b91505092915050565b600073ffffffffffffffffffffffffffffffffffffffff82169050919050565b6000819050919050565b600061100e61100961100484610fc9565b610fe9565b610fc9565b9050919050565b600061102082610ff3565b9050919050565b600061103282611015565b9050919050565b61104281611027565b82525050565b600060208201905061105d6000830184611039565b92915050565b61106c81610f66565b82525050565b60006020820190506110876000830184611063565b92915050565b600061109882610fc9565b9050919050565b6110a88161108d565b81146110b357600080fd5b50565b6000813590506110c58161109f565b92915050565b600080600080608085870312156110e5576110e4610f61565b5b60006110f387828801610f87565b945050602061110487828801610f87565b9350506040611115878288016110b6565b925050606061112687828801610f87565b91505092959194509250565b600061113d82611015565b9050919050565b61114d81611132565b82525050565b60006020820190506111686000830184611144565b92915050565b6111778161108d565b82525050565b6000602082019050611192600083018461116e565b92915050565b6000806000606084860312156111b1576111b0610f61565b5b60006111bf868287016110b6565b93505060206111d086828701610f87565b92505060406111e186828701610f87565b9150509250925092565b60008115159050919050565b611200816111eb565b82525050565b600060208201905061121b60008301846111f7565b92915050565b6000806040838503121561123857611237610f61565b5b600061124685828601610f87565b925050602061125785828601610f87565b9150509250929050565b600082825260208201905092915050565b7f4f6e6c79206f776e65722063616e2063616c6c20746869732066756e6374696f60008201527f6e00000000000000000000000000000000000000000000000000000000000000602082015250565b60006112ce602183611261565b91506112d982611272565b604082019050919050565b600060208201905081810360008301526112fd816112c1565b9050919050565b60006040820190506113196000830185611063565b6113266020830184611063565b9392505050565b60008151905061133c81610f70565b92915050565b60006020828403121561135857611357610f61565b5b60006113668482850161132d565b91505092915050565b7f4e6f7420656e6f75676820746f6b656e7320696e20636f6e7472616374000000600082015250565b60006113a5601d83611261565b91506113b08261136f565b602082019050919050565b600060208201905081810360008301526113d481611398565b9050919050565b60006040820190506113f0600083018561116e565b6113fd6020830184611063565b9392505050565b61140d816111eb565b811461141857600080fd5b50565b60008151905061142a81611404565b92915050565b60006020828403121561144657611445610f61565b5b60006114548482850161141b565b91505092915050565b7f5769746864726177616c206661696c6564000000000000000000000000000000600082015250565b6000611493601183611261565b915061149e8261145d565b602082019050919050565b600060208201905081810360008301526114c281611486565b9050919050565b7f59656172206d757374206265206e6f6e7a65726f000000000000000000000000600082015250565b60006114ff601483611261565b915061150a826114c9565b602082019050919050565b6000602082019050818103600083015261152e816114f2565b9050919050565b7f4d6f6e7468206d75737420626520312d31320000000000000000000000000000600082015250565b600061156b601283611261565b915061157682611535565b602082019050919050565b6000602082019050818103600083015261159a8161155e565b9050919050565b7f4e6f742061637469766520666f722074686973206d6f6e74682f796561720000600082015250565b60006115d7601e83611261565b91506115e2826115a1565b602082019050919050565b60006020820190508181036000830152611606816115ca565b9050919050565b7f496e73756666696369656e7420636f6e747261637420746f6b656e2062616c6160008201527f6e63650000000000000000000000000000000000000000000000000000000000602082015250565b6000611669602383611261565b91506116748261160d565b604082019050919050565b600060208201905081810360008301526116988161165c565b9050919050565b7f436c61696d207472616e73666572206661696c65640000000000000000000000600082015250565b60006116d5601583611261565b91506116e08261169f565b602082019050919050565b60006020820190508181036000830152611704816116c8565b9050919050565b60006080820190506117206000830187611063565b61172d6020830186611063565b61173a6040830185611063565b6117476060830184611063565b95945050505050565b7f496e73756666696369656e7420746f6b656e2062616c616e6365000000000000600082015250565b6000611786601a83611261565b915061179182611750565b602082019050919050565b600060208201905081810360008301526117b581611779565b9050919050565b60006040820190506117d1600083018561116e565b6117de602083018461116e565b9392505050565b7f496e73756666696369656e7420746f6b656e20616c6c6f77616e636500000000600082015250565b600061181b601c83611261565b9150611826826117e5565b602082019050919050565b6000602082019050818103600083015261184a8161180e565b9050919050565b6000606082019050611866600083018661116e565b611873602083018561116e565b6118806040830184611063565b949350505050565b7f546f6b656e207472616e73666572206661696c65640000000000000000000000600082015250565b60006118be601583611261565b91506118c982611888565b602082019050919050565b600060208201905081810360008301526118ed816118b1565b9050919050565b60006060820190506119096000830186611063565b6119166020830185611063565b6119236040830184611063565b94935050505056fea2646970667358221220142035ed1a09533dffe1b5755e41e96c50ebb1d5c7afcf57b26eebc89bf63fc164736f6c634300081b0033",
  "linkReferences": {},
  "deployedLinkReferences": {}
}