{
  "_format": "hh-sol-artifact-1",
  "contractName": "MedicalRecords",
  "sourceName": "contracts/MedicalRecords.sol",
  "abi": [
    {
      "inputs": [],
      "stateMutability": "nonpayable",
      "type": "constructor"
    },
    {
      "inputs": [],
      "name": "OnlyAdmin",
      "type": "error"
    },
    {
      "anonymous": false,
      "inputs": [
        {
          "indexed": false,
          "internalType": "address",
          "name": "provider",
          "type": "address"
        }
      ],
      "name": "ProviderAuthorized",
      "type": "event"
    },
    {
      "anonymous": false,
      "inputs": [
        {
          "indexed": false,
          "internalType": "address",
          "name": "provider",
          "type": "address"
        }
      ],
      "name": "ProviderRemoved",
      "type": "event"
    },
    {
      "anonymous": false,
      "inputs": [
        {
          "indexed": false,
          "internalType": "uint16",
          "name": "recordIndex",
          "type": "uint16"
        },
        {
          "indexed": false,
          "internalType": "uint256",
          "name": "timestamp",
          "type": "uint256"
        },
        {
          "indexed": false,
          "internalType": "bool",
          "name": "isPaid",
          "type": "bool"
        }
      ],
      "name": "RecordAdded",
      "type": "event"
    },
    {
      "anonymous": false,
      "inputs": [
        {
          "indexed": false,
          "internalType": "uint64",
          "name": "nik",
          "type": "uint64"
        },
        {
          "indexed": false,
          "internalType": "uint16",
          "name": "recordIndex",
          "type": "uint16"
        },
        {
          "indexed": false,
          "internalType": "bool",
          "name": "isPaid",
          "type": "bool"
        }
      ],
      "name": "RecordPaymentUpdated",
      "type": "event"
    },
    {
      "inputs": [
        {
          "internalType": "uint64",
          "name": "nik",
          "type": "uint64"
        },
        {
          "internalType": "string",
          "name": "encryptedData",
          "type": "string"
        }
      ],
      "name": "addRecord",
      "outputs": [],
      "stateMutability": "nonpayable",
      "type": "function"
    },
    {
      "inputs": [],
      "name": "admin",
      "outputs": [
        {
          "internalType": "address",
          "name": "",
          "type": "address"
        }
      ],
      "stateMutability": "view",
      "type": "function"
    },
    {
      "inputs": [],
      "name": "allowedContract",
      "outputs": [
        {
          "internalType": "address",
          "name": "",
          "type": "address"
        }
      ],
      "stateMutability": "view",
      "type": "function"
    },
    {
      "inputs": [
        {
          "internalType": "address",
          "name": "provider",
          "type": "address"
        }
      ],
      "name": "authorizeProvider",
      "outputs": [],
      "stateMutability": "nonpayable",
      "type": "function"
    },
    {
      "inputs": [
        {
          "internalType": "address",
          "name": "",
          "type": "address"
        }
      ],
      "name": "authorizedProviders",
      "outputs": [
        {
          "internalType": "bool",
          "name": "",
          "type": "bool"
        }
      ],
      "stateMutability": "view",
      "type": "function"
    },
    {
      "inputs": [
        {
          "internalType": "uint64",
          "name": "nik",
          "type": "uint64"
        }
      ],
      "name": "getRecordCount",
      "outputs": [
        {
          "internalType": "uint256",
          "name": "",
          "type": "uint256"
        }
      ],
      "stateMutability": "view",
      "type": "function"
    },
    {
      "inputs": [
        {
          "internalType": "uint64",
          "name": "nik",
          "type": "uint64"
        }
      ],
      "name": "getRecords",
      "outputs": [
        {
          "components": [
            {
              "internalType": "string",
              "name": "encryptedData",
              "type": "string"
            },
            {
              "internalType": "address",
              "name": "provider",
              "type": "address"
            },
            {
              "internalType": "uint256",
              "name": "timestamp",
              "type": "uint256"
            },
            {
              "internalType": "bool",
              "name": "isPaid",
              "type": "bool"
            }
          ],
          "internalType": "struct MedicalRecords.Record[]",
          "name": "",
          "type": "tuple[]"
        }
      ],
      "stateMutability": "view",
      "type": "function"
    },
    {
      "inputs": [
        {
          "internalType": "address",
          "name": "provider",
          "type": "address"
        }
      ],
      "name": "removeProvider",
      "outputs": [],
      "stateMutability": "nonpayable",
      "type": "function"
    },
    {
      "inputs": [
        {
          "internalType": "address",
          "name": "contractAddress",
          "type": "address"
        }
      ],
      "name": "setAllowedContract",
      "outputs": [],
      "stateMutability": "nonpayable",
      "type": "function"
    },
    {
      "inputs": [
        {
          "internalType": "uint64",
          "name": "nik",
          "type": "uint64"
        },
        {
          "internalType": "uint16",
          "name": "recordIndex",
          "type": "uint16"
        },
        {
          "internalType": "bool",
          "name": "isPaid",
          "type": "bool"
        }
      ],
      "name": "updateRecordPaymentStatus",
      "outputs": [],
      "stateMutability": "nonpayable",
      "type": "function"
    }
  ],
  "bytecode": "0x6080604052348015600f57600080fd5b50336000806101000a81548173ffffffffffffffffffffffffffffffffffffffff021916908373ffffffffffffffffffffffffffffffffffffffff16021790555061174e8061005f6000396000f3fe608060405234801561001057600080fd5b506004361061009e5760003560e01c806386e32ed01161006657806386e32ed01461016b5780638a355a5714610187578063e89d5a89146101a3578063f0799a5d146101c1578063f851a440146101dd5761009e565b8063112ea262146100a35780631dee3ed8146100bf578063433a5854146100db5780635a8add3e1461010b57806369dc3ae21461013b575b600080fd5b6100bd60048036038101906100b89190610c62565b6101fb565b005b6100d960048036038101906100d49190610d41565b610312565b005b6100f560048036038101906100f09190610d94565b6104b8565b6040516101029190610dda565b60405180910390f35b61012560048036038101906101209190610d94565b610578565b6040516101329190610fd7565b60405180910390f35b61015560048036038101906101509190610c62565b610797565b6040516101629190611008565b60405180910390f35b61018560048036038101906101809190610c62565b6107b7565b005b6101a1600480360381019061019c9190610c62565b610880565b005b6101ab610997565b6040516101b89190611032565b60405180910390f35b6101db60048036038101906101d69190611182565b6109bd565b005b6101e5610bcc565b6040516101f29190611032565b60405180910390f35b60008054906101000a900473ffffffffffffffffffffffffffffffffffffffff1673ffffffffffffffffffffffffffffffffffffffff163373ffffffffffffffffffffffffffffffffffffffff1614610280576040517f4755657900000000000000000000000000000000000000000000000000000000815260040160405180910390fd5b6001600360008373ffffffffffffffffffffffffffffffffffffffff1673ffffffffffffffffffffffffffffffffffffffff16815260200190815260200160002060006101000a81548160ff0219169083151502179055507f30aad5ec8e5ced8ded7e45959f743df649dbc96638aa1a73a56bb0c4e25aab3a816040516103079190611032565b60405180910390a150565b600160009054906101000a900473ffffffffffffffffffffffffffffffffffffffff1673ffffffffffffffffffffffffffffffffffffffff163373ffffffffffffffffffffffffffffffffffffffff16146103a2576040517f08c379a000000000000000000000000000000000000000000000000000000000815260040161039990611261565b60405180910390fd5b600260008467ffffffffffffffff1667ffffffffffffffff168152602001908152602001600020805490508261ffff1610610412576040517f08c379a0000000000000000000000000000000000000000000000000000000008152600401610409906112cd565b60405180910390fd5b80600260008567ffffffffffffffff1667ffffffffffffffff1681526020019081526020016000208361ffff16815481106104505761044f6112ed565b5b906000526020600020906004020160030160006101000a81548160ff0219169083151502179055507f85b07ce78b263a420aecfd01ba35d2ef493f36d7f609225fcce7974808c9ff588383836040516104ab9392919061133a565b60405180910390a1505050565b6000600360003373ffffffffffffffffffffffffffffffffffffffff1673ffffffffffffffffffffffffffffffffffffffff16815260200190815260200160002060009054906101000a900460ff16610546576040517f08c379a000000000000000000000000000000000000000000000000000000000815260040161053d906113e3565b60405180910390fd5b600260008367ffffffffffffffff1667ffffffffffffffff168152602001908152602001600020805490509050919050565b6060600360003373ffffffffffffffffffffffffffffffffffffffff1673ffffffffffffffffffffffffffffffffffffffff16815260200190815260200160002060009054906101000a900460ff16610606576040517f08c379a00000000000000000000000000000000000000000000000000000000081526004016105fd906113e3565b60405180910390fd5b600260008367ffffffffffffffff1667ffffffffffffffff168152602001908152602001600020805480602002602001604051908101604052809291908181526020016000905b8282101561078c578382906000526020600020906004020160405180608001604052908160008201805461068090611432565b80601f01602080910402602001604051908101604052809291908181526020018280546106ac90611432565b80156106f95780601f106106ce576101008083540402835291602001916106f9565b820191906000526020600020905b8154815290600101906020018083116106dc57829003601f168201915b505050505081526020016001820160009054906101000a900473ffffffffffffffffffffffffffffffffffffffff1673ffffffffffffffffffffffffffffffffffffffff1673ffffffffffffffffffffffffffffffffffffffff168152602001600282015481526020016003820160009054906101000a900460ff1615151515815250508152602001906001019061064d565b505050509050919050565b60036020528060005260406000206000915054906101000a900460ff1681565b60008054906101000a900473ffffffffffffffffffffffffffffffffffffffff1673ffffffffffffffffffffffffffffffffffffffff163373ffffffffffffffffffffffffffffffffffffffff161461083c576040517f4755657900000000000000000000000000000000000000000000000000000000815260040160405180910390fd5b80600160006101000a81548173ffffffffffffffffffffffffffffffffffffffff021916908373ffffffffffffffffffffffffffffffffffffffff16021790555050565b60008054906101000a900473ffffffffffffffffffffffffffffffffffffffff1673ffffffffffffffffffffffffffffffffffffffff163373ffffffffffffffffffffffffffffffffffffffff1614610905576040517f4755657900000000000000000000000000000000000000000000000000000000815260040160405180910390fd5b6000600360008373ffffffffffffffffffffffffffffffffffffffff1673ffffffffffffffffffffffffffffffffffffffff16815260200190815260200160002060006101000a81548160ff0219169083151502179055507f1589f8555933761a3cff8aa925061be3b46e2dd43f621322ab611d300f62b1d98160405161098c9190611032565b60405180910390a150565b600160009054906101000a900473ffffffffffffffffffffffffffffffffffffffff1681565b600360003373ffffffffffffffffffffffffffffffffffffffff1673ffffffffffffffffffffffffffffffffffffffff16815260200190815260200160002060009054906101000a900460ff16610a49576040517f08c379a0000000000000000000000000000000000000000000000000000000008152600401610a40906113e3565b60405180910390fd5b6000600260008467ffffffffffffffff1667ffffffffffffffff168152602001908152602001600020805490509050600260008467ffffffffffffffff1667ffffffffffffffff16815260200190815260200160002060405180608001604052808481526020013373ffffffffffffffffffffffffffffffffffffffff1681526020014281526020016000151581525090806001815401808255809150506001900390600052602060002090600402016000909190919091506000820151816000019081610b17919061160f565b5060208201518160010160006101000a81548173ffffffffffffffffffffffffffffffffffffffff021916908373ffffffffffffffffffffffffffffffffffffffff1602179055506040820151816002015560608201518160030160006101000a81548160ff02191690831515021790555050507f8394028df1d683d1413059579dad41a9615d6fe4d830a11bc00ee68280301c5c81426000604051610bbf939291906116e1565b60405180910390a1505050565b60008054906101000a900473ffffffffffffffffffffffffffffffffffffffff1681565b6000604051905090565b600080fd5b600080fd5b600073ffffffffffffffffffffffffffffffffffffffff82169050919050565b6000610c2f82610c04565b9050919050565b610c3f81610c24565b8114610c4a57600080fd5b50565b600081359050610c5c81610c36565b92915050565b600060208284031215610c7857610c77610bfa565b5b6000610c8684828501610c4d565b91505092915050565b600067ffffffffffffffff82169050919050565b610cac81610c8f565b8114610cb757600080fd5b50565b600081359050610cc981610ca3565b92915050565b600061ffff82169050919050565b610ce681610ccf565b8114610cf157600080fd5b50565b600081359050610d0381610cdd565b92915050565b60008115159050919050565b610d1e81610d09565b8114610d2957600080fd5b50565b600081359050610d3b81610d15565b92915050565b600080600060608486031215610d5a57610d59610bfa565b5b6000610d6886828701610cba565b9350506020610d7986828701610cf4565b9250506040610d8a86828701610d2c565b9150509250925092565b600060208284031215610daa57610da9610bfa565b5b6000610db884828501610cba565b91505092915050565b6000819050919050565b610dd481610dc1565b82525050565b6000602082019050610def6000830184610dcb565b92915050565b600081519050919050565b600082825260208201905092915050565b6000819050602082019050919050565b600081519050919050565b600082825260208201905092915050565b60005b83811015610e5b578082015181840152602081019050610e40565b60008484015250505050565b6000601f19601f8301169050919050565b6000610e8382610e21565b610e8d8185610e2c565b9350610e9d818560208601610e3d565b610ea681610e67565b840191505092915050565b610eba81610c24565b82525050565b610ec981610dc1565b82525050565b610ed881610d09565b82525050565b60006080830160008301518482036000860152610efb8282610e78565b9150506020830151610f106020860182610eb1565b506040830151610f236040860182610ec0565b506060830151610f366060860182610ecf565b508091505092915050565b6000610f4d8383610ede565b905092915050565b6000602082019050919050565b6000610f6d82610df5565b610f778185610e00565b935083602082028501610f8985610e11565b8060005b85811015610fc55784840389528151610fa68582610f41565b9450610fb183610f55565b925060208a01995050600181019050610f8d565b50829750879550505050505092915050565b60006020820190508181036000830152610ff18184610f62565b905092915050565b61100281610d09565b82525050565b600060208201905061101d6000830184610ff9565b92915050565b61102c81610c24565b82525050565b60006020820190506110476000830184611023565b92915050565b600080fd5b600080fd5b7f4e487b7100000000000000000000000000000000000000000000000000000000600052604160045260246000fd5b61108f82610e67565b810181811067ffffffffffffffff821117156110ae576110ad611057565b5b80604052505050565b60006110c1610bf0565b90506110cd8282611086565b919050565b600067ffffffffffffffff8211156110ed576110ec611057565b5b6110f682610e67565b9050602081019050919050565b82818337600083830152505050565b6000611125611120846110d2565b6110b7565b90508281526020810184848401111561114157611140611052565b5b61114c848285611103565b509392505050565b600082601f8301126111695761116861104d565b5b8135611179848260208601611112565b91505092915050565b6000806040838503121561119957611198610bfa565b5b60006111a785828601610cba565b925050602083013567ffffffffffffffff8111156111c8576111c7610bff565b5b6111d485828601611154565b9150509250929050565b600082825260208201905092915050565b7f43616c6c6572206973206e6f742074686520616c6c6f77656420636f6e74726160008201527f6374000000000000000000000000000000000000000000000000000000000000602082015250565b600061124b6022836111de565b9150611256826111ef565b604082019050919050565b6000602082019050818103600083015261127a8161123e565b9050919050565b7f496e76616c6964207265636f726420696e646578000000000000000000000000600082015250565b60006112b76014836111de565b91506112c282611281565b602082019050919050565b600060208201905081810360008301526112e6816112aa565b9050919050565b7f4e487b7100000000000000000000000000000000000000000000000000000000600052603260045260246000fd5b61132581610c8f565b82525050565b61133481610ccf565b82525050565b600060608201905061134f600083018661131c565b61135c602083018561132b565b6113696040830184610ff9565b949350505050565b7f4f6e6c7920617574686f72697a65642070726f7669646572732063616e20706560008201527f72666f726d207468697320616374696f6e000000000000000000000000000000602082015250565b60006113cd6031836111de565b91506113d882611371565b604082019050919050565b600060208201905081810360008301526113fc816113c0565b9050919050565b7f4e487b7100000000000000000000000000000000000000000000000000000000600052602260045260246000fd5b6000600282049050600182168061144a57607f821691505b60208210810361145d5761145c611403565b5b50919050565b60008190508160005260206000209050919050565b60006020601f8301049050919050565b600082821b905092915050565b6000600883026114c57fffffffffffffffffffffffffffffffffffffffffffffffffffffffffffffffff82611488565b6114cf8683611488565b95508019841693508086168417925050509392505050565b6000819050919050565b600061150c61150761150284610dc1565b6114e7565b610dc1565b9050919050565b6000819050919050565b611526836114f1565b61153a61153282611513565b848454611495565b825550505050565b600090565b61154f611542565b61155a81848461151d565b505050565b5b8181101561157e57611573600082611547565b600181019050611560565b5050565b601f8211156115c35761159481611463565b61159d84611478565b810160208510156115ac578190505b6115c06115b885611478565b83018261155f565b50505b505050565b600082821c905092915050565b60006115e6600019846008026115c8565b1980831691505092915050565b60006115ff83836115d5565b9150826002028217905092915050565b61161882610e21565b67ffffffffffffffff81111561163157611630611057565b5b61163b8254611432565b611646828285611582565b600060209050601f8311600181146116795760008415611667578287015190505b61167185826115f3565b8655506116d9565b601f19841661168786611463565b60005b828110156116af5784890151825560018201915060208501945060208101905061168a565b868310156116cc57848901516116c8601f8916826115d5565b8355505b6001600288020188555050505b505050505050565b60006060820190506116f6600083018661132b565b6117036020830185610dcb565b6117106040830184610ff9565b94935050505056fea264697066735822122040085b688a7adf10ce0ea60e31a8835a0954647fda9da47ac232da4b520dd92464736f6c634300081b0033",
  "linkReferences": {},
  "deployedLinkReferences": {}
}