{
  "_format": "hh-sol-artifact-1",
  "contractName": "PriceOracle",
  "sourceName": "contracts/PriceOracle.sol",
  "abi": [
    {
      "inputs": [
        {
          "internalType": "uint256",
          "name": "initialPremiumPrice",
          "type": "uint256"
        },
        {
          "internalType": "uint256",
          "name": "initialClaimPrice",
          "type": "uint256"
        }
      ],
      "stateMutability": "nonpayable",
      "type": "constructor"
    },
    {
      "anonymous": false,
      "inputs": [
        {
          "indexed": false,
          "internalType": "uint256",
          "name": "oldData",
          "type": "uint256"
        },
        {
          "indexed": false,
          "internalType": "uint256",
          "name": "newData",
          "type": "uint256"
        }
      ],
      "name": "ClaimUpdated",
      "type": "event"
    },
    {
      "anonymous": false,
      "inputs": [
        {
          "indexed": false,
          "internalType": "uint256",
          "name": "oldData",
          "type": "uint256"
        },
        {
          "indexed": false,
          "internalType": "uint256",
          "name": "newData",
          "type": "uint256"
        }
      ],
      "name": "PremiumUpdated",
      "type": "event"
    },
    {
      "inputs": [],
      "name": "claimPrice",
      "outputs": [
        {
          "internalType": "uint256",
          "name": "",
          "type": "uint256"
        }
      ],
      "stateMutability": "view",
      "type": "function"
    },
    {
      "inputs": [],
      "name": "getClaimPrice",
      "outputs": [
        {
          "internalType": "uint256",
          "name": "",
          "type": "uint256"
        }
      ],
      "stateMutability": "view",
      "type": "function"
    },
    {
      "inputs": [],
      "name": "getPremiumPrice",
      "outputs": [
        {
          "internalType": "uint256",
          "name": "",
          "type": "uint256"
        }
      ],
      "stateMutability": "view",
      "type": "function"
    },
    {
      "inputs": [],
      "name": "owner",
      "outputs": [
        {
          "internalType": "address",
          "name": "",
          "type": "address"
        }
      ],
      "stateMutability": "view",
      "type": "function"
    },
    {
      "inputs": [],
      "name": "premiumPrice",
      "outputs": [
        {
          "internalType": "uint256",
          "name": "",
          "type": "uint256"
        }
      ],
      "stateMutability": "view",
      "type": "function"
    },
    {
      "inputs": [
        {
          "internalType": "uint256",
          "name": "newData",
          "type": "uint256"
        }
      ],
      "name": "setClaimPrice",
      "outputs": [],
      "stateMutability": "nonpayable",
      "type": "function"
    },
    {
      "inputs": [
        {
          "internalType": "uint256",
          "name": "newData",
          "type": "uint256"
        }
      ],
      "name": "setPremiumPrice",
      "outputs": [],
      "stateMutability": "nonpayable",
      "type": "function"
    },
    {
      "stateMutability": "payable",
      "type": "receive"
    }
  ],
  "bytecode": "0x608060405234801561001057600080fd5b50604051610683380380610683833981810160405281019061003291906100c3565b816000819055508060018190555033600260006101000a81548173ffffffffffffffffffffffffffffffffffffffff021916908373ffffffffffffffffffffffffffffffffffffffff1602179055505050610103565b600080fd5b6000819050919050565b6100a08161008d565b81146100ab57600080fd5b50565b6000815190506100bd81610097565b92915050565b600080604083850312156100da576100d9610088565b5b60006100e8858286016100ae565b92505060206100f9858286016100ae565b9150509250929050565b610571806101126000396000f3fe6080604052600436106100745760003560e01c806330654e131161004e57806330654e13146100ff57806349394b0d1461012a57806351f468c0146101555780638da5cb5b1461017e5761007b565b806315d655c91461008057806321f6d587146100ab5780632a958179146100d65761007b565b3661007b57005b600080fd5b34801561008c57600080fd5b506100956101a9565b6040516100a291906103c0565b60405180910390f35b3480156100b757600080fd5b506100c06101af565b6040516100cd91906103c0565b60405180910390f35b3480156100e257600080fd5b506100fd60048036038101906100f8919061040c565b6101b9565b005b34801561010b57600080fd5b50610114610295565b60405161012191906103c0565b60405180910390f35b34801561013657600080fd5b5061013f61029b565b60405161014c91906103c0565b60405180910390f35b34801561016157600080fd5b5061017c6004803603810190610177919061040c565b6102a4565b005b34801561018a57600080fd5b50610193610381565b6040516101a0919061047a565b60405180910390f35b60015481565b6000600154905090565b600260009054906101000a900473ffffffffffffffffffffffffffffffffffffffff1673ffffffffffffffffffffffffffffffffffffffff163373ffffffffffffffffffffffffffffffffffffffff1614610249576040517f08c379a0000000000000000000000000000000000000000000000000000000008152600401610240906104f2565b60405180910390fd5b600080549050816000819055507f09cd73f1e5a72a9aa3f9a3be157754c12c33bb354df859c62eb815166deb01ce81600054604051610289929190610512565b60405180910390a15050565b60005481565b60008054905090565b600260009054906101000a900473ffffffffffffffffffffffffffffffffffffffff1673ffffffffffffffffffffffffffffffffffffffff163373ffffffffffffffffffffffffffffffffffffffff1614610334576040517f08c379a000000000000000000000000000000000000000000000000000000000815260040161032b906104f2565b60405180910390fd5b60006001549050816001819055507f09cd73f1e5a72a9aa3f9a3be157754c12c33bb354df859c62eb815166deb01ce81600154604051610375929190610512565b60405180910390a15050565b600260009054906101000a900473ffffffffffffffffffffffffffffffffffffffff1681565b6000819050919050565b6103ba816103a7565b82525050565b60006020820190506103d560008301846103b1565b92915050565b600080fd5b6103e9816103a7565b81146103f457600080fd5b50565b600081359050610406816103e0565b92915050565b600060208284031215610422576104216103db565b5b6000610430848285016103f7565b91505092915050565b600073ffffffffffffffffffffffffffffffffffffffff82169050919050565b600061046482610439565b9050919050565b61047481610459565b82525050565b600060208201905061048f600083018461046b565b92915050565b600082825260208201905092915050565b7f4f6e6c79206f776e65722063616e207570646174652074686520646174610000600082015250565b60006104dc601e83610495565b91506104e7826104a6565b602082019050919050565b6000602082019050818103600083015261050b816104cf565b9050919050565b600060408201905061052760008301856103b1565b61053460208301846103b1565b939250505056fea264697066735822122067dc28a101268e8becb9549e472eac46abe9cc70b5adaeecc300f624e432caac64736f6c634300081b0033",
  "linkReferences": {},
  "deployedLinkReferences": {}
}